{
	"contracts/3_Ballot.sol": {
		"Ballot": {
			"abi": [
				{
					"inputs": [],
					"stateMutability": "nonpayable",
					"type": "constructor"
				},
				{
					"inputs": [],
					"name": "chairperson",
					"outputs": [
						{
							"internalType": "address",
							"name": "",
							"type": "address"
						}
					],
					"stateMutability": "view",
					"type": "function"
				},
				{
					"inputs": [
						{
							"internalType": "address",
							"name": "to",
							"type": "address"
						}
					],
					"name": "delegate",
					"outputs": [],
					"stateMutability": "nonpayable",
					"type": "function"
				},
				{
					"inputs": [
						{
							"internalType": "address",
							"name": "voter",
							"type": "address"
						}
					],
					"name": "giveRightToVote",
					"outputs": [],
					"stateMutability": "nonpayable",
					"type": "function"
				},
				{
					"inputs": [
						{
							"internalType": "uint256",
							"name": "",
							"type": "uint256"
						}
					],
					"name": "proposals",
					"outputs": [
						{
							"internalType": "bytes32",
							"name": "name",
							"type": "bytes32"
						},
						{
							"internalType": "uint256",
							"name": "voteCount",
							"type": "uint256"
						}
					],
					"stateMutability": "view",
					"type": "function"
				},
				{
					"inputs": [
						{
							"internalType": "uint256",
							"name": "proposal",
							"type": "uint256"
						}
					],
					"name": "vote",
					"outputs": [],
					"stateMutability": "nonpayable",
					"type": "function"
				},
				{
					"inputs": [
						{
							"internalType": "address",
							"name": "",
							"type": "address"
						}
					],
					"name": "voters",
					"outputs": [
						{
							"internalType": "uint256",
							"name": "weight",
							"type": "uint256"
						},
						{
							"internalType": "bool",
							"name": "voted",
							"type": "bool"
						},
						{
							"internalType": "address",
							"name": "delegate",
							"type": "address"
						},
						{
							"internalType": "uint256",
							"name": "vote",
							"type": "uint256"
						}
					],
					"stateMutability": "view",
					"type": "function"
				},
				{
					"inputs": [],
					"name": "winnerName",
					"outputs": [
						{
							"internalType": "bytes32",
							"name": "winnerName_",
							"type": "bytes32"
						}
					],
					"stateMutability": "view",
					"type": "function"
				},
				{
					"inputs": [],
					"name": "winningProposal",
					"outputs": [
						{
							"internalType": "uint256",
							"name": "winningProposal_",
							"type": "uint256"
						}
					],
					"stateMutability": "view",
					"type": "function"
				}
			],
			"devdoc": {
				"details": "Implements voting process along with vote delegation",
				"kind": "dev",
				"methods": {
					"constructor": {
						"details": "Create a new ballot to choose one of 'proposalNames'."
					},
					"delegate(address)": {
						"details": "Delegate your vote to the voter 'to'.",
						"params": {
							"to": "address to which vote is delegated"
						}
					},
					"giveRightToVote(address)": {
						"details": "Give 'voter' the right to vote on this ballot. May only be called by 'chairperson'.",
						"params": {
							"voter": "address of voter"
						}
					},
					"vote(uint256)": {
						"details": "Give your vote (including votes delegated to you) to proposal 'proposals[proposal].name'.",
						"params": {
							"proposal": "index of proposal in the proposals array"
						}
					},
					"winnerName()": {
						"details": "Calls winningProposal() function to get the index of the winner contained in the proposals array and then",
						"returns": {
							"winnerName_": "the name of the winner"
						}
					},
					"winningProposal()": {
						"details": "Computes the winning proposal taking all previous votes into account.",
						"returns": {
							"winningProposal_": "index of winning proposal in the proposals array"
						}
					}
				},
				"title": "Ballot",
				"version": 1
			},
			"evm": {
				"assembly": "    /* \"contracts/3_Ballot.sol\":157:4726  contract Ballot {... */\n  mstore(0x40, 0x80)\n    /* \"contracts/3_Ballot.sol\":963:1646  constructor() {... */\n  callvalue\n  dup1\n  iszero\n  tag_1\n  jumpi\n  0x00\n  dup1\n  revert\ntag_1:\n  pop\n    /* \"contracts/3_Ballot.sol\":987:1018  bytes32[2] memory proposalNames */\n  tag_4\n  tag_5\n  jump\t// in\ntag_4:\n    /* \"contracts/3_Ballot.sol\":1047:1113  0x6e616d6530310000000000000000000000000000000000000000000000000000 */\n  0x6e616d6530310000000000000000000000000000000000000000000000000000\n    /* \"contracts/3_Ballot.sol\":1028:1113  proposalNames[0] = 0x6e616d6530310000000000000000000000000000000000000000000000000000 */\n  0x00\n  shl\n    /* \"contracts/3_Ballot.sol\":1028:1041  proposalNames */\n  dup2\n    /* \"contracts/3_Ballot.sol\":1042:1043  0 */\n  0x00\n    /* \"contracts/3_Ballot.sol\":1028:1044  proposalNames[0] */\n  0x02\n  dup2\n  lt\n  tag_6\n  jumpi\n  tag_7\n  tag_8\n  jump\t// in\ntag_7:\ntag_6:\n  0x20\n  mul\n  add\n    /* \"contracts/3_Ballot.sol\":1028:1113  proposalNames[0] = 0x6e616d6530310000000000000000000000000000000000000000000000000000 */\n  dup2\n  dup2\n  mstore\n  pop\n  pop\n    /* \"contracts/3_Ballot.sol\":1142:1208  0x6e616d6530320000000000000000000000000000000000000000000000000000 */\n  0x6e616d6530320000000000000000000000000000000000000000000000000000\n    /* \"contracts/3_Ballot.sol\":1123:1208  proposalNames[1] = 0x6e616d6530320000000000000000000000000000000000000000000000000000 */\n  0x00\n  shl\n    /* \"contracts/3_Ballot.sol\":1123:1136  proposalNames */\n  dup2\n    /* \"contracts/3_Ballot.sol\":1137:1138  1 */\n  0x01\n    /* \"contracts/3_Ballot.sol\":1123:1139  proposalNames[1] */\n  0x02\n  dup2\n  lt\n  tag_9\n  jumpi\n  tag_10\n  tag_8\n  jump\t// in\ntag_10:\ntag_9:\n  0x20\n  mul\n  add\n    /* \"contracts/3_Ballot.sol\":1123:1208  proposalNames[1] = 0x6e616d6530320000000000000000000000000000000000000000000000000000 */\n  dup2\n  dup2\n  mstore\n  pop\n  pop\n    /* \"contracts/3_Ballot.sol\":1233:1243  msg.sender */\n  caller\n    /* \"contracts/3_Ballot.sol\":1219:1230  chairperson */\n  0x00\n  dup1\n    /* \"contracts/3_Ballot.sol\":1219:1243  chairperson = msg.sender */\n  0x0100\n  exp\n  dup2\n  sload\n  dup2\n  0xffffffffffffffffffffffffffffffffffffffff\n  mul\n  not\n  and\n  swap1\n  dup4\n  0xffffffffffffffffffffffffffffffffffffffff\n  and\n  mul\n  or\n  swap1\n  sstore\n  pop\n    /* \"contracts/3_Ballot.sol\":1282:1283  1 */\n  0x01\n    /* \"contracts/3_Ballot.sol\":1253:1259  voters */\n  dup1\n    /* \"contracts/3_Ballot.sol\":1253:1272  voters[chairperson] */\n  0x00\n    /* \"contracts/3_Ballot.sol\":1260:1271  chairperson */\n  dup1\n  0x00\n  swap1\n  sload\n  swap1\n  0x0100\n  exp\n  swap1\n  div\n  0xffffffffffffffffffffffffffffffffffffffff\n  and\n    /* \"contracts/3_Ballot.sol\":1253:1272  voters[chairperson] */\n  0xffffffffffffffffffffffffffffffffffffffff\n  and\n  0xffffffffffffffffffffffffffffffffffffffff\n  and\n  dup2\n  mstore\n  0x20\n  add\n  swap1\n  dup2\n  mstore\n  0x20\n  add\n  0x00\n  keccak256\n    /* \"contracts/3_Ballot.sol\":1253:1279  voters[chairperson].weight */\n  0x00\n  add\n    /* \"contracts/3_Ballot.sol\":1253:1283  voters[chairperson].weight = 1 */\n  dup2\n  swap1\n  sstore\n  pop\n    /* \"contracts/3_Ballot.sol\":1299:1305  uint i */\n  0x00\n    /* \"contracts/3_Ballot.sol\":1294:1640  for (uint i = 0; i < proposalNames.length; i++) {... */\ntag_11:\n    /* \"contracts/3_Ballot.sol\":1315:1335  proposalNames.length */\n  0x02\n    /* \"contracts/3_Ballot.sol\":1311:1312  i */\n  dup2\n    /* \"contracts/3_Ballot.sol\":1311:1335  i < proposalNames.length */\n  lt\n    /* \"contracts/3_Ballot.sol\":1294:1640  for (uint i = 0; i < proposalNames.length; i++) {... */\n  iszero\n  tag_12\n  jumpi\n    /* \"contracts/3_Ballot.sol\":1519:1528  proposals */\n  0x02\n    /* \"contracts/3_Ballot.sol\":1534:1628  Proposal({... */\n  mload(0x40)\n  dup1\n  0x40\n  add\n  0x40\n  mstore\n  dup1\n    /* \"contracts/3_Ballot.sol\":1567:1580  proposalNames */\n  dup5\n    /* \"contracts/3_Ballot.sol\":1581:1582  i */\n  dup5\n    /* \"contracts/3_Ballot.sol\":1567:1583  proposalNames[i] */\n  0x02\n  dup2\n  lt\n  tag_14\n  jumpi\n  tag_15\n  tag_8\n  jump\t// in\ntag_15:\ntag_14:\n  0x20\n  mul\n  add\n  mload\n    /* \"contracts/3_Ballot.sol\":1534:1628  Proposal({... */\n  dup2\n  mstore\n  0x20\n  add\n    /* \"contracts/3_Ballot.sol\":1612:1613  0 */\n  0x00\n    /* \"contracts/3_Ballot.sol\":1534:1628  Proposal({... */\n  dup2\n  mstore\n  pop\n    /* \"contracts/3_Ballot.sol\":1519:1629  proposals.push(Proposal({... */\n  swap1\n  dup1\n  0x01\n  dup2\n  sload\n  add\n  dup1\n  dup3\n  sstore\n  dup1\n  swap2\n  pop\n  pop\n  0x01\n  swap1\n  sub\n  swap1\n  0x00\n  mstore\n  keccak256(0x00, 0x20)\n  swap1\n  0x02\n  mul\n  add\n  0x00\n  swap1\n  swap2\n  swap1\n  swap2\n  swap1\n  swap2\n  pop\n  0x00\n  dup3\n  add\n  mload\n  dup2\n  0x00\n  add\n  sstore\n  0x20\n  dup3\n  add\n  mload\n  dup2\n  0x01\n  add\n  sstore\n  pop\n  pop\n    /* \"contracts/3_Ballot.sol\":1337:1340  i++ */\n  dup1\n  dup1\n  tag_17\n  swap1\n  tag_18\n  jump\t// in\ntag_17:\n  swap2\n  pop\n  pop\n    /* \"contracts/3_Ballot.sol\":1294:1640  for (uint i = 0; i < proposalNames.length; i++) {... */\n  jump(tag_11)\ntag_12:\n  pop\n    /* \"contracts/3_Ballot.sol\":977:1646  {... */\n  pop\n    /* \"contracts/3_Ballot.sol\":157:4726  contract Ballot {... */\n  jump(tag_19)\ntag_5:\n  mload(0x40)\n  dup1\n  0x40\n  add\n  0x40\n  mstore\n  dup1\n  0x02\n  swap1\n  0x20\n  dup3\n  mul\n  dup1\n  calldatasize\n  dup4\n  calldatacopy\n  dup1\n  dup3\n  add\n  swap2\n  pop\n  pop\n  swap1\n  pop\n  pop\n  swap1\n  jump\t// out\n    /* \"#utility.yul\":7:84   */\ntag_21:\n    /* \"#utility.yul\":44:51   */\n  0x00\n    /* \"#utility.yul\":73:78   */\n  dup2\n    /* \"#utility.yul\":62:78   */\n  swap1\n  pop\n    /* \"#utility.yul\":7:84   */\n  swap2\n  swap1\n  pop\n  jump\t// out\n    /* \"#utility.yul\":90:323   */\ntag_18:\n    /* \"#utility.yul\":129:132   */\n  0x00\n    /* \"#utility.yul\":152:176   */\n  tag_24\n    /* \"#utility.yul\":170:175   */\n  dup3\n    /* \"#utility.yul\":152:176   */\n  tag_21\n  jump\t// in\ntag_24:\n    /* \"#utility.yul\":143:176   */\n  swap2\n  pop\n    /* \"#utility.yul\":198:264   */\n  0xffffffffffffffffffffffffffffffffffffffffffffffffffffffffffffffff\n    /* \"#utility.yul\":191:196   */\n  dup3\n    /* \"#utility.yul\":188:265   */\n  eq\n    /* \"#utility.yul\":185:288   */\n  iszero\n  tag_25\n  jumpi\n    /* \"#utility.yul\":268:286   */\n  tag_26\n  tag_27\n  jump\t// in\ntag_26:\n    /* \"#utility.yul\":185:288   */\ntag_25:\n    /* \"#utility.yul\":315:316   */\n  0x01\n    /* \"#utility.yul\":308:313   */\n  dup3\n    /* \"#utility.yul\":304:317   */\n  add\n    /* \"#utility.yul\":297:317   */\n  swap1\n  pop\n    /* \"#utility.yul\":90:323   */\n  swap2\n  swap1\n  pop\n  jump\t// out\n    /* \"#utility.yul\":329:509   */\ntag_27:\n    /* \"#utility.yul\":377:454   */\n  0x4e487b7100000000000000000000000000000000000000000000000000000000\n    /* \"#utility.yul\":374:375   */\n  0x00\n    /* \"#utility.yul\":367:455   */\n  mstore\n    /* \"#utility.yul\":474:478   */\n  0x11\n    /* \"#utility.yul\":471:472   */\n  0x04\n    /* \"#utility.yul\":464:479   */\n  mstore\n    /* \"#utility.yul\":498:502   */\n  0x24\n    /* \"#utility.yul\":495:496   */\n  0x00\n    /* \"#utility.yul\":488:503   */\n  revert\n    /* \"#utility.yul\":515:695   */\ntag_8:\n    /* \"#utility.yul\":563:640   */\n  0x4e487b7100000000000000000000000000000000000000000000000000000000\n    /* \"#utility.yul\":560:561   */\n  0x00\n    /* \"#utility.yul\":553:641   */\n  mstore\n    /* \"#utility.yul\":660:664   */\n  0x32\n    /* \"#utility.yul\":657:658   */\n  0x04\n    /* \"#utility.yul\":650:665   */\n  mstore\n    /* \"#utility.yul\":684:688   */\n  0x24\n    /* \"#utility.yul\":681:682   */\n  0x00\n    /* \"#utility.yul\":674:689   */\n  revert\n    /* \"contracts/3_Ballot.sol\":157:4726  contract Ballot {... */\ntag_19:\n  dataSize(sub_0)\n  dup1\n  dataOffset(sub_0)\n  0x00\n  codecopy\n  0x00\n  return\nstop\n\nsub_0: assembly {\n        /* \"contracts/3_Ballot.sol\":157:4726  contract Ballot {... */\n      mstore(0x40, 0x80)\n      callvalue\n      dup1\n      iszero\n      tag_1\n      jumpi\n      0x00\n      dup1\n      revert\n    tag_1:\n      pop\n      jumpi(tag_2, lt(calldatasize, 0x04))\n      shr(0xe0, calldataload(0x00))\n      dup1\n      0x609ff1bd\n      gt\n      tag_11\n      jumpi\n      dup1\n      0x609ff1bd\n      eq\n      tag_7\n      jumpi\n      dup1\n      0x9e7b8d61\n      eq\n      tag_8\n      jumpi\n      dup1\n      0xa3ec138d\n      eq\n      tag_9\n      jumpi\n      dup1\n      0xe2ba53f0\n      eq\n      tag_10\n      jumpi\n      jump(tag_2)\n    tag_11:\n      dup1\n      0x0121b93f\n      eq\n      tag_3\n      jumpi\n      dup1\n      0x013cf08b\n      eq\n      tag_4\n      jumpi\n      dup1\n      0x2e4176cf\n      eq\n      tag_5\n      jumpi\n      dup1\n      0x5c19a95c\n      eq\n      tag_6\n      jumpi\n    tag_2:\n      0x00\n      dup1\n      revert\n        /* \"contracts/3_Ballot.sol\":3380:3838  function vote(uint proposal) public {... */\n    tag_3:\n      tag_12\n      0x04\n      dup1\n      calldatasize\n      sub\n      dup2\n      add\n      swap1\n      tag_13\n      swap2\n      swap1\n      tag_14\n      jump\t// in\n    tag_13:\n      tag_15\n      jump\t// in\n    tag_12:\n      stop\n        /* \"contracts/3_Ballot.sol\":794:821  Proposal[] public proposals */\n    tag_4:\n      tag_16\n      0x04\n      dup1\n      calldatasize\n      sub\n      dup2\n      add\n      swap1\n      tag_17\n      swap2\n      swap1\n      tag_14\n      jump\t// in\n    tag_17:\n      tag_18\n      jump\t// in\n    tag_16:\n      mload(0x40)\n      tag_19\n      swap3\n      swap2\n      swap1\n      tag_20\n      jump\t// in\n    tag_19:\n      mload(0x40)\n      dup1\n      swap2\n      sub\n      swap1\n      return\n        /* \"contracts/3_Ballot.sol\":715:741  address public chairperson */\n    tag_5:\n      tag_21\n      tag_22\n      jump\t// in\n    tag_21:\n      mload(0x40)\n      tag_23\n      swap2\n      swap1\n      tag_24\n      jump\t// in\n    tag_23:\n      mload(0x40)\n      dup1\n      swap2\n      sub\n      swap1\n      return\n        /* \"contracts/3_Ballot.sol\":2285:3192  function delegate(address to) public {... */\n    tag_6:\n      tag_25\n      0x04\n      dup1\n      calldatasize\n      sub\n      dup2\n      add\n      swap1\n      tag_26\n      swap2\n      swap1\n      tag_27\n      jump\t// in\n    tag_26:\n      tag_28\n      jump\t// in\n    tag_25:\n      stop\n        /* \"contracts/3_Ballot.sol\":4024:4389  function winningProposal() public view... */\n    tag_7:\n      tag_29\n      tag_30\n      jump\t// in\n    tag_29:\n      mload(0x40)\n      tag_31\n      swap2\n      swap1\n      tag_32\n      jump\t// in\n    tag_31:\n      mload(0x40)\n      dup1\n      swap2\n      sub\n      swap1\n      return\n        /* \"contracts/3_Ballot.sol\":1806:2161  function giveRightToVote(address voter) public {... */\n    tag_8:\n      tag_33\n      0x04\n      dup1\n      calldatasize\n      sub\n      dup2\n      add\n      swap1\n      tag_34\n      swap2\n      swap1\n      tag_27\n      jump\t// in\n    tag_34:\n      tag_35\n      jump\t// in\n    tag_33:\n      stop\n        /* \"contracts/3_Ballot.sol\":748:787  mapping(address => Voter) public voters */\n    tag_9:\n      tag_36\n      0x04\n      dup1\n      calldatasize\n      sub\n      dup2\n      add\n      swap1\n      tag_37\n      swap2\n      swap1\n      tag_27\n      jump\t// in\n    tag_37:\n      tag_38\n      jump\t// in\n    tag_36:\n      mload(0x40)\n      tag_39\n      swap5\n      swap4\n      swap3\n      swap2\n      swap1\n      tag_40\n      jump\t// in\n    tag_39:\n      mload(0x40)\n      dup1\n      swap2\n      sub\n      swap1\n      return\n        /* \"contracts/3_Ballot.sol\":4580:4724  function winnerName() public view... */\n    tag_10:\n      tag_41\n      tag_42\n      jump\t// in\n    tag_41:\n      mload(0x40)\n      tag_43\n      swap2\n      swap1\n      tag_44\n      jump\t// in\n    tag_43:\n      mload(0x40)\n      dup1\n      swap2\n      sub\n      swap1\n      return\n        /* \"contracts/3_Ballot.sol\":3380:3838  function vote(uint proposal) public {... */\n    tag_15:\n        /* \"contracts/3_Ballot.sol\":3426:3446  Voter storage sender */\n      0x00\n        /* \"contracts/3_Ballot.sol\":3449:3455  voters */\n      0x01\n        /* \"contracts/3_Ballot.sol\":3449:3467  voters[msg.sender] */\n      0x00\n        /* \"contracts/3_Ballot.sol\":3456:3466  msg.sender */\n      caller\n        /* \"contracts/3_Ballot.sol\":3449:3467  voters[msg.sender] */\n      0xffffffffffffffffffffffffffffffffffffffff\n      and\n      0xffffffffffffffffffffffffffffffffffffffff\n      and\n      dup2\n      mstore\n      0x20\n      add\n      swap1\n      dup2\n      mstore\n      0x20\n      add\n      0x00\n      keccak256\n        /* \"contracts/3_Ballot.sol\":3426:3467  Voter storage sender = voters[msg.sender] */\n      swap1\n      pop\n        /* \"contracts/3_Ballot.sol\":3502:3503  0 */\n      0x00\n        /* \"contracts/3_Ballot.sol\":3485:3491  sender */\n      dup2\n        /* \"contracts/3_Ballot.sol\":3485:3498  sender.weight */\n      0x00\n      add\n      sload\n        /* \"contracts/3_Ballot.sol\":3485:3503  sender.weight != 0 */\n      eq\n      iszero\n        /* \"contracts/3_Ballot.sol\":3477:3528  require(sender.weight != 0, \"Has no right to vote\") */\n      tag_46\n      jumpi\n      mload(0x40)\n      0x08c379a000000000000000000000000000000000000000000000000000000000\n      dup2\n      mstore\n      0x04\n      add\n      tag_47\n      swap1\n      tag_48\n      jump\t// in\n    tag_47:\n      mload(0x40)\n      dup1\n      swap2\n      sub\n      swap1\n      revert\n    tag_46:\n        /* \"contracts/3_Ballot.sol\":3547:3553  sender */\n      dup1\n        /* \"contracts/3_Ballot.sol\":3547:3559  sender.voted */\n      0x01\n      add\n      0x00\n      swap1\n      sload\n      swap1\n      0x0100\n      exp\n      swap1\n      div\n      0xff\n      and\n        /* \"contracts/3_Ballot.sol\":3546:3559  !sender.voted */\n      iszero\n        /* \"contracts/3_Ballot.sol\":3538:3578  require(!sender.voted, \"Already voted.\") */\n      tag_49\n      jumpi\n      mload(0x40)\n      0x08c379a000000000000000000000000000000000000000000000000000000000\n      dup2\n      mstore\n      0x04\n      add\n      tag_50\n      swap1\n      tag_51\n      jump\t// in\n    tag_50:\n      mload(0x40)\n      dup1\n      swap2\n      sub\n      swap1\n      revert\n    tag_49:\n        /* \"contracts/3_Ballot.sol\":3603:3607  true */\n      0x01\n        /* \"contracts/3_Ballot.sol\":3588:3594  sender */\n      dup2\n        /* \"contracts/3_Ballot.sol\":3588:3600  sender.voted */\n      0x01\n      add\n      0x00\n        /* \"contracts/3_Ballot.sol\":3588:3607  sender.voted = true */\n      0x0100\n      exp\n      dup2\n      sload\n      dup2\n      0xff\n      mul\n      not\n      and\n      swap1\n      dup4\n      iszero\n      iszero\n      mul\n      or\n      swap1\n      sstore\n      pop\n        /* \"contracts/3_Ballot.sol\":3631:3639  proposal */\n      dup2\n        /* \"contracts/3_Ballot.sol\":3617:3623  sender */\n      dup2\n        /* \"contracts/3_Ballot.sol\":3617:3628  sender.vote */\n      0x02\n      add\n        /* \"contracts/3_Ballot.sol\":3617:3639  sender.vote = proposal */\n      dup2\n      swap1\n      sstore\n      pop\n        /* \"contracts/3_Ballot.sol\":3818:3824  sender */\n      dup1\n        /* \"contracts/3_Ballot.sol\":3818:3831  sender.weight */\n      0x00\n      add\n      sload\n        /* \"contracts/3_Ballot.sol\":3785:3794  proposals */\n      0x02\n        /* \"contracts/3_Ballot.sol\":3795:3803  proposal */\n      dup4\n        /* \"contracts/3_Ballot.sol\":3785:3804  proposals[proposal] */\n      dup2\n      sload\n      dup2\n      lt\n      tag_52\n      jumpi\n      tag_53\n      tag_54\n      jump\t// in\n    tag_53:\n    tag_52:\n      swap1\n      0x00\n      mstore\n      keccak256(0x00, 0x20)\n      swap1\n      0x02\n      mul\n      add\n        /* \"contracts/3_Ballot.sol\":3785:3814  proposals[proposal].voteCount */\n      0x01\n      add\n      0x00\n        /* \"contracts/3_Ballot.sol\":3785:3831  proposals[proposal].voteCount += sender.weight */\n      dup3\n      dup3\n      sload\n      tag_56\n      swap2\n      swap1\n      tag_57\n      jump\t// in\n    tag_56:\n      swap3\n      pop\n      pop\n      dup2\n      swap1\n      sstore\n      pop\n        /* \"contracts/3_Ballot.sol\":3416:3838  {... */\n      pop\n        /* \"contracts/3_Ballot.sol\":3380:3838  function vote(uint proposal) public {... */\n      pop\n      jump\t// out\n        /* \"contracts/3_Ballot.sol\":794:821  Proposal[] public proposals */\n    tag_18:\n      0x02\n      dup2\n      dup2\n      sload\n      dup2\n      lt\n      tag_58\n      jumpi\n      0x00\n      dup1\n      revert\n    tag_58:\n      swap1\n      0x00\n      mstore\n      keccak256(0x00, 0x20)\n      swap1\n      0x02\n      mul\n      add\n      0x00\n      swap2\n      pop\n      swap1\n      pop\n      dup1\n      0x00\n      add\n      sload\n      swap1\n      dup1\n      0x01\n      add\n      sload\n      swap1\n      pop\n      dup3\n      jump\t// out\n        /* \"contracts/3_Ballot.sol\":715:741  address public chairperson */\n    tag_22:\n      0x00\n      dup1\n      sload\n      swap1\n      0x0100\n      exp\n      swap1\n      div\n      0xffffffffffffffffffffffffffffffffffffffff\n      and\n      dup2\n      jump\t// out\n        /* \"contracts/3_Ballot.sol\":2285:3192  function delegate(address to) public {... */\n    tag_28:\n        /* \"contracts/3_Ballot.sol\":2332:2352  Voter storage sender */\n      0x00\n        /* \"contracts/3_Ballot.sol\":2355:2361  voters */\n      0x01\n        /* \"contracts/3_Ballot.sol\":2355:2373  voters[msg.sender] */\n      0x00\n        /* \"contracts/3_Ballot.sol\":2362:2372  msg.sender */\n      caller\n        /* \"contracts/3_Ballot.sol\":2355:2373  voters[msg.sender] */\n      0xffffffffffffffffffffffffffffffffffffffff\n      and\n      0xffffffffffffffffffffffffffffffffffffffff\n      and\n      dup2\n      mstore\n      0x20\n      add\n      swap1\n      dup2\n      mstore\n      0x20\n      add\n      0x00\n      keccak256\n        /* \"contracts/3_Ballot.sol\":2332:2373  Voter storage sender = voters[msg.sender] */\n      swap1\n      pop\n        /* \"contracts/3_Ballot.sol\":2392:2398  sender */\n      dup1\n        /* \"contracts/3_Ballot.sol\":2392:2404  sender.voted */\n      0x01\n      add\n      0x00\n      swap1\n      sload\n      swap1\n      0x0100\n      exp\n      swap1\n      div\n      0xff\n      and\n        /* \"contracts/3_Ballot.sol\":2391:2404  !sender.voted */\n      iszero\n        /* \"contracts/3_Ballot.sol\":2383:2427  require(!sender.voted, \"You already voted.\") */\n      tag_61\n      jumpi\n      mload(0x40)\n      0x08c379a000000000000000000000000000000000000000000000000000000000\n      dup2\n      mstore\n      0x04\n      add\n      tag_62\n      swap1\n      tag_63\n      jump\t// in\n    tag_62:\n      mload(0x40)\n      dup1\n      swap2\n      sub\n      swap1\n      revert\n    tag_61:\n        /* \"contracts/3_Ballot.sol\":2451:2461  msg.sender */\n      caller\n        /* \"contracts/3_Ballot.sol\":2445:2461  to != msg.sender */\n      0xffffffffffffffffffffffffffffffffffffffff\n      and\n        /* \"contracts/3_Ballot.sol\":2445:2447  to */\n      dup3\n        /* \"contracts/3_Ballot.sol\":2445:2461  to != msg.sender */\n      0xffffffffffffffffffffffffffffffffffffffff\n      and\n      eq\n      iszero\n        /* \"contracts/3_Ballot.sol\":2437:2496  require(to != msg.sender, \"Self-delegation is disallowed.\") */\n      tag_64\n      jumpi\n      mload(0x40)\n      0x08c379a000000000000000000000000000000000000000000000000000000000\n      dup2\n      mstore\n      0x04\n      add\n      tag_65\n      swap1\n      tag_66\n      jump\t// in\n    tag_65:\n      mload(0x40)\n      dup1\n      swap2\n      sub\n      swap1\n      revert\n    tag_64:\n        /* \"contracts/3_Ballot.sol\":2507:2730  while (voters[to].delegate != address(0)) {... */\n    tag_67:\n        /* \"contracts/3_Ballot.sol\":2545:2546  0 */\n      0x00\n        /* \"contracts/3_Ballot.sol\":2514:2547  voters[to].delegate != address(0) */\n      0xffffffffffffffffffffffffffffffffffffffff\n      and\n        /* \"contracts/3_Ballot.sol\":2514:2520  voters */\n      0x01\n        /* \"contracts/3_Ballot.sol\":2514:2524  voters[to] */\n      0x00\n        /* \"contracts/3_Ballot.sol\":2521:2523  to */\n      dup5\n        /* \"contracts/3_Ballot.sol\":2514:2524  voters[to] */\n      0xffffffffffffffffffffffffffffffffffffffff\n      and\n      0xffffffffffffffffffffffffffffffffffffffff\n      and\n      dup2\n      mstore\n      0x20\n      add\n      swap1\n      dup2\n      mstore\n      0x20\n      add\n      0x00\n      keccak256\n        /* \"contracts/3_Ballot.sol\":2514:2533  voters[to].delegate */\n      0x01\n      add\n      0x01\n      swap1\n      sload\n      swap1\n      0x0100\n      exp\n      swap1\n      div\n      0xffffffffffffffffffffffffffffffffffffffff\n      and\n        /* \"contracts/3_Ballot.sol\":2514:2547  voters[to].delegate != address(0) */\n      0xffffffffffffffffffffffffffffffffffffffff\n      and\n      eq\n        /* \"contracts/3_Ballot.sol\":2507:2730  while (voters[to].delegate != address(0)) {... */\n      tag_68\n      jumpi\n        /* \"contracts/3_Ballot.sol\":2568:2574  voters */\n      0x01\n        /* \"contracts/3_Ballot.sol\":2568:2578  voters[to] */\n      0x00\n        /* \"contracts/3_Ballot.sol\":2575:2577  to */\n      dup4\n        /* \"contracts/3_Ballot.sol\":2568:2578  voters[to] */\n      0xffffffffffffffffffffffffffffffffffffffff\n      and\n      0xffffffffffffffffffffffffffffffffffffffff\n      and\n      dup2\n      mstore\n      0x20\n      add\n      swap1\n      dup2\n      mstore\n      0x20\n      add\n      0x00\n      keccak256\n        /* \"contracts/3_Ballot.sol\":2568:2587  voters[to].delegate */\n      0x01\n      add\n      0x01\n      swap1\n      sload\n      swap1\n      0x0100\n      exp\n      swap1\n      div\n      0xffffffffffffffffffffffffffffffffffffffff\n      and\n        /* \"contracts/3_Ballot.sol\":2563:2587  to = voters[to].delegate */\n      swap2\n      pop\n        /* \"contracts/3_Ballot.sol\":2679:2689  msg.sender */\n      caller\n        /* \"contracts/3_Ballot.sol\":2673:2689  to != msg.sender */\n      0xffffffffffffffffffffffffffffffffffffffff\n      and\n        /* \"contracts/3_Ballot.sol\":2673:2675  to */\n      dup3\n        /* \"contracts/3_Ballot.sol\":2673:2689  to != msg.sender */\n      0xffffffffffffffffffffffffffffffffffffffff\n      and\n      eq\n      iszero\n        /* \"contracts/3_Ballot.sol\":2665:2719  require(to != msg.sender, \"Found loop in delegation.\") */\n      tag_69\n      jumpi\n      mload(0x40)\n      0x08c379a000000000000000000000000000000000000000000000000000000000\n      dup2\n      mstore\n      0x04\n      add\n      tag_70\n      swap1\n      tag_71\n      jump\t// in\n    tag_70:\n      mload(0x40)\n      dup1\n      swap2\n      sub\n      swap1\n      revert\n    tag_69:\n        /* \"contracts/3_Ballot.sol\":2507:2730  while (voters[to].delegate != address(0)) {... */\n      jump(tag_67)\n    tag_68:\n        /* \"contracts/3_Ballot.sol\":2754:2758  true */\n      0x01\n        /* \"contracts/3_Ballot.sol\":2739:2745  sender */\n      dup2\n        /* \"contracts/3_Ballot.sol\":2739:2751  sender.voted */\n      0x01\n      add\n      0x00\n        /* \"contracts/3_Ballot.sol\":2739:2758  sender.voted = true */\n      0x0100\n      exp\n      dup2\n      sload\n      dup2\n      0xff\n      mul\n      not\n      and\n      swap1\n      dup4\n      iszero\n      iszero\n      mul\n      or\n      swap1\n      sstore\n      pop\n        /* \"contracts/3_Ballot.sol\":2786:2788  to */\n      dup2\n        /* \"contracts/3_Ballot.sol\":2768:2774  sender */\n      dup2\n        /* \"contracts/3_Ballot.sol\":2768:2783  sender.delegate */\n      0x01\n      add\n      0x01\n        /* \"contracts/3_Ballot.sol\":2768:2788  sender.delegate = to */\n      0x0100\n      exp\n      dup2\n      sload\n      dup2\n      0xffffffffffffffffffffffffffffffffffffffff\n      mul\n      not\n      and\n      swap1\n      dup4\n      0xffffffffffffffffffffffffffffffffffffffff\n      and\n      mul\n      or\n      swap1\n      sstore\n      pop\n        /* \"contracts/3_Ballot.sol\":2798:2821  Voter storage delegate_ */\n      0x00\n        /* \"contracts/3_Ballot.sol\":2824:2830  voters */\n      0x01\n        /* \"contracts/3_Ballot.sol\":2824:2834  voters[to] */\n      0x00\n        /* \"contracts/3_Ballot.sol\":2831:2833  to */\n      dup5\n        /* \"contracts/3_Ballot.sol\":2824:2834  voters[to] */\n      0xffffffffffffffffffffffffffffffffffffffff\n      and\n      0xffffffffffffffffffffffffffffffffffffffff\n      and\n      dup2\n      mstore\n      0x20\n      add\n      swap1\n      dup2\n      mstore\n      0x20\n      add\n      0x00\n      keccak256\n        /* \"contracts/3_Ballot.sol\":2798:2834  Voter storage delegate_ = voters[to] */\n      swap1\n      pop\n        /* \"contracts/3_Ballot.sol\":2848:2857  delegate_ */\n      dup1\n        /* \"contracts/3_Ballot.sol\":2848:2863  delegate_.voted */\n      0x01\n      add\n      0x00\n      swap1\n      sload\n      swap1\n      0x0100\n      exp\n      swap1\n      div\n      0xff\n      and\n        /* \"contracts/3_Ballot.sol\":2844:3186  if (delegate_.voted) {... */\n      iszero\n      tag_72\n      jumpi\n        /* \"contracts/3_Ballot.sol\":3015:3021  sender */\n      dup2\n        /* \"contracts/3_Ballot.sol\":3015:3028  sender.weight */\n      0x00\n      add\n      sload\n        /* \"contracts/3_Ballot.sol\":2976:2985  proposals */\n      0x02\n        /* \"contracts/3_Ballot.sol\":2986:2995  delegate_ */\n      dup3\n        /* \"contracts/3_Ballot.sol\":2986:3000  delegate_.vote */\n      0x02\n      add\n      sload\n        /* \"contracts/3_Ballot.sol\":2976:3001  proposals[delegate_.vote] */\n      dup2\n      sload\n      dup2\n      lt\n      tag_73\n      jumpi\n      tag_74\n      tag_54\n      jump\t// in\n    tag_74:\n    tag_73:\n      swap1\n      0x00\n      mstore\n      keccak256(0x00, 0x20)\n      swap1\n      0x02\n      mul\n      add\n        /* \"contracts/3_Ballot.sol\":2976:3011  proposals[delegate_.vote].voteCount */\n      0x01\n      add\n      0x00\n        /* \"contracts/3_Ballot.sol\":2976:3028  proposals[delegate_.vote].voteCount += sender.weight */\n      dup3\n      dup3\n      sload\n      tag_76\n      swap2\n      swap1\n      tag_57\n      jump\t// in\n    tag_76:\n      swap3\n      pop\n      pop\n      dup2\n      swap1\n      sstore\n      pop\n        /* \"contracts/3_Ballot.sol\":2844:3186  if (delegate_.voted) {... */\n      jump(tag_77)\n    tag_72:\n        /* \"contracts/3_Ballot.sol\":3162:3168  sender */\n      dup2\n        /* \"contracts/3_Ballot.sol\":3162:3175  sender.weight */\n      0x00\n      add\n      sload\n        /* \"contracts/3_Ballot.sol\":3142:3151  delegate_ */\n      dup2\n        /* \"contracts/3_Ballot.sol\":3142:3158  delegate_.weight */\n      0x00\n      add\n      0x00\n        /* \"contracts/3_Ballot.sol\":3142:3175  delegate_.weight += sender.weight */\n      dup3\n      dup3\n      sload\n      tag_78\n      swap2\n      swap1\n      tag_57\n      jump\t// in\n    tag_78:\n      swap3\n      pop\n      pop\n      dup2\n      swap1\n      sstore\n      pop\n        /* \"contracts/3_Ballot.sol\":2844:3186  if (delegate_.voted) {... */\n    tag_77:\n        /* \"contracts/3_Ballot.sol\":2322:3192  {... */\n      pop\n      pop\n        /* \"contracts/3_Ballot.sol\":2285:3192  function delegate(address to) public {... */\n      pop\n      jump\t// out\n        /* \"contracts/3_Ballot.sol\":4024:4389  function winningProposal() public view... */\n    tag_30:\n        /* \"contracts/3_Ballot.sol\":4084:4105  uint winningProposal_ */\n      0x00\n        /* \"contracts/3_Ballot.sol\":4121:4142  uint winningVoteCount */\n      dup1\n        /* \"contracts/3_Ballot.sol\":4145:4146  0 */\n      0x00\n        /* \"contracts/3_Ballot.sol\":4121:4146  uint winningVoteCount = 0 */\n      swap1\n      pop\n        /* \"contracts/3_Ballot.sol\":4161:4167  uint p */\n      0x00\n        /* \"contracts/3_Ballot.sol\":4156:4383  for (uint p = 0; p < proposals.length; p++) {... */\n    tag_80:\n        /* \"contracts/3_Ballot.sol\":4177:4186  proposals */\n      0x02\n        /* \"contracts/3_Ballot.sol\":4177:4193  proposals.length */\n      dup1\n      sload\n      swap1\n      pop\n        /* \"contracts/3_Ballot.sol\":4173:4174  p */\n      dup2\n        /* \"contracts/3_Ballot.sol\":4173:4193  p < proposals.length */\n      lt\n        /* \"contracts/3_Ballot.sol\":4156:4383  for (uint p = 0; p < proposals.length; p++) {... */\n      iszero\n      tag_81\n      jumpi\n        /* \"contracts/3_Ballot.sol\":4243:4259  winningVoteCount */\n      dup2\n        /* \"contracts/3_Ballot.sol\":4218:4227  proposals */\n      0x02\n        /* \"contracts/3_Ballot.sol\":4228:4229  p */\n      dup3\n        /* \"contracts/3_Ballot.sol\":4218:4230  proposals[p] */\n      dup2\n      sload\n      dup2\n      lt\n      tag_83\n      jumpi\n      tag_84\n      tag_54\n      jump\t// in\n    tag_84:\n    tag_83:\n      swap1\n      0x00\n      mstore\n      keccak256(0x00, 0x20)\n      swap1\n      0x02\n      mul\n      add\n        /* \"contracts/3_Ballot.sol\":4218:4240  proposals[p].voteCount */\n      0x01\n      add\n      sload\n        /* \"contracts/3_Ballot.sol\":4218:4259  proposals[p].voteCount > winningVoteCount */\n      gt\n        /* \"contracts/3_Ballot.sol\":4214:4373  if (proposals[p].voteCount > winningVoteCount) {... */\n      iszero\n      tag_86\n      jumpi\n        /* \"contracts/3_Ballot.sol\":4298:4307  proposals */\n      0x02\n        /* \"contracts/3_Ballot.sol\":4308:4309  p */\n      dup2\n        /* \"contracts/3_Ballot.sol\":4298:4310  proposals[p] */\n      dup2\n      sload\n      dup2\n      lt\n      tag_87\n      jumpi\n      tag_88\n      tag_54\n      jump\t// in\n    tag_88:\n    tag_87:\n      swap1\n      0x00\n      mstore\n      keccak256(0x00, 0x20)\n      swap1\n      0x02\n      mul\n      add\n        /* \"contracts/3_Ballot.sol\":4298:4320  proposals[p].voteCount */\n      0x01\n      add\n      sload\n        /* \"contracts/3_Ballot.sol\":4279:4320  winningVoteCount = proposals[p].voteCount */\n      swap2\n      pop\n        /* \"contracts/3_Ballot.sol\":4357:4358  p */\n      dup1\n        /* \"contracts/3_Ballot.sol\":4338:4358  winningProposal_ = p */\n      swap3\n      pop\n        /* \"contracts/3_Ballot.sol\":4214:4373  if (proposals[p].voteCount > winningVoteCount) {... */\n    tag_86:\n        /* \"contracts/3_Ballot.sol\":4195:4198  p++ */\n      dup1\n      dup1\n      tag_90\n      swap1\n      tag_91\n      jump\t// in\n    tag_90:\n      swap2\n      pop\n      pop\n        /* \"contracts/3_Ballot.sol\":4156:4383  for (uint p = 0; p < proposals.length; p++) {... */\n      jump(tag_80)\n    tag_81:\n      pop\n        /* \"contracts/3_Ballot.sol\":4111:4389  {... */\n      pop\n        /* \"contracts/3_Ballot.sol\":4024:4389  function winningProposal() public view... */\n      swap1\n      jump\t// out\n        /* \"contracts/3_Ballot.sol\":1806:2161  function giveRightToVote(address voter) public {... */\n    tag_35:\n        /* \"contracts/3_Ballot.sol\":1898:1909  chairperson */\n      0x00\n      dup1\n      sload\n      swap1\n      0x0100\n      exp\n      swap1\n      div\n      0xffffffffffffffffffffffffffffffffffffffff\n      and\n        /* \"contracts/3_Ballot.sol\":1884:1909  msg.sender == chairperson */\n      0xffffffffffffffffffffffffffffffffffffffff\n      and\n        /* \"contracts/3_Ballot.sol\":1884:1894  msg.sender */\n      caller\n        /* \"contracts/3_Ballot.sol\":1884:1909  msg.sender == chairperson */\n      0xffffffffffffffffffffffffffffffffffffffff\n      and\n      eq\n        /* \"contracts/3_Ballot.sol\":1863:1975  require(... */\n      tag_93\n      jumpi\n      mload(0x40)\n      0x08c379a000000000000000000000000000000000000000000000000000000000\n      dup2\n      mstore\n      0x04\n      add\n      tag_94\n      swap1\n      tag_95\n      jump\t// in\n    tag_94:\n      mload(0x40)\n      dup1\n      swap2\n      sub\n      swap1\n      revert\n    tag_93:\n        /* \"contracts/3_Ballot.sol\":2007:2013  voters */\n      0x01\n        /* \"contracts/3_Ballot.sol\":2007:2020  voters[voter] */\n      0x00\n        /* \"contracts/3_Ballot.sol\":2014:2019  voter */\n      dup3\n        /* \"contracts/3_Ballot.sol\":2007:2020  voters[voter] */\n      0xffffffffffffffffffffffffffffffffffffffff\n      and\n      0xffffffffffffffffffffffffffffffffffffffff\n      and\n      dup2\n      mstore\n      0x20\n      add\n      swap1\n      dup2\n      mstore\n      0x20\n      add\n      0x00\n      keccak256\n        /* \"contracts/3_Ballot.sol\":2007:2026  voters[voter].voted */\n      0x01\n      add\n      0x00\n      swap1\n      sload\n      swap1\n      0x0100\n      exp\n      swap1\n      div\n      0xff\n      and\n        /* \"contracts/3_Ballot.sol\":2006:2026  !voters[voter].voted */\n      iszero\n        /* \"contracts/3_Ballot.sol\":1985:2076  require(... */\n      tag_96\n      jumpi\n      mload(0x40)\n      0x08c379a000000000000000000000000000000000000000000000000000000000\n      dup2\n      mstore\n      0x04\n      add\n      tag_97\n      swap1\n      tag_98\n      jump\t// in\n    tag_97:\n      mload(0x40)\n      dup1\n      swap2\n      sub\n      swap1\n      revert\n    tag_96:\n        /* \"contracts/3_Ballot.sol\":2118:2119  0 */\n      0x00\n        /* \"contracts/3_Ballot.sol\":2094:2100  voters */\n      0x01\n        /* \"contracts/3_Ballot.sol\":2094:2107  voters[voter] */\n      0x00\n        /* \"contracts/3_Ballot.sol\":2101:2106  voter */\n      dup4\n        /* \"contracts/3_Ballot.sol\":2094:2107  voters[voter] */\n      0xffffffffffffffffffffffffffffffffffffffff\n      and\n      0xffffffffffffffffffffffffffffffffffffffff\n      and\n      dup2\n      mstore\n      0x20\n      add\n      swap1\n      dup2\n      mstore\n      0x20\n      add\n      0x00\n      keccak256\n        /* \"contracts/3_Ballot.sol\":2094:2114  voters[voter].weight */\n      0x00\n      add\n      sload\n        /* \"contracts/3_Ballot.sol\":2094:2119  voters[voter].weight == 0 */\n      eq\n        /* \"contracts/3_Ballot.sol\":2086:2120  require(voters[voter].weight == 0) */\n      tag_99\n      jumpi\n      0x00\n      dup1\n      revert\n    tag_99:\n        /* \"contracts/3_Ballot.sol\":2153:2154  1 */\n      0x01\n        /* \"contracts/3_Ballot.sol\":2130:2136  voters */\n      dup1\n        /* \"contracts/3_Ballot.sol\":2130:2143  voters[voter] */\n      0x00\n        /* \"contracts/3_Ballot.sol\":2137:2142  voter */\n      dup4\n        /* \"contracts/3_Ballot.sol\":2130:2143  voters[voter] */\n      0xffffffffffffffffffffffffffffffffffffffff\n      and\n      0xffffffffffffffffffffffffffffffffffffffff\n      and\n      dup2\n      mstore\n      0x20\n      add\n      swap1\n      dup2\n      mstore\n      0x20\n      add\n      0x00\n      keccak256\n        /* \"contracts/3_Ballot.sol\":2130:2150  voters[voter].weight */\n      0x00\n      add\n        /* \"contracts/3_Ballot.sol\":2130:2154  voters[voter].weight = 1 */\n      dup2\n      swap1\n      sstore\n      pop\n        /* \"contracts/3_Ballot.sol\":1806:2161  function giveRightToVote(address voter) public {... */\n      pop\n      jump\t// out\n        /* \"contracts/3_Ballot.sol\":748:787  mapping(address => Voter) public voters */\n    tag_38:\n      mstore(0x20, 0x01)\n      dup1\n      0x00\n      mstore\n      keccak256(0x00, 0x40)\n      0x00\n      swap2\n      pop\n      swap1\n      pop\n      dup1\n      0x00\n      add\n      sload\n      swap1\n      dup1\n      0x01\n      add\n      0x00\n      swap1\n      sload\n      swap1\n      0x0100\n      exp\n      swap1\n      div\n      0xff\n      and\n      swap1\n      dup1\n      0x01\n      add\n      0x01\n      swap1\n      sload\n      swap1\n      0x0100\n      exp\n      swap1\n      div\n      0xffffffffffffffffffffffffffffffffffffffff\n      and\n      swap1\n      dup1\n      0x02\n      add\n      sload\n      swap1\n      pop\n      dup5\n      jump\t// out\n        /* \"contracts/3_Ballot.sol\":4580:4724  function winnerName() public view... */\n    tag_42:\n        /* \"contracts/3_Ballot.sol\":4635:4654  bytes32 winnerName_ */\n      0x00\n        /* \"contracts/3_Ballot.sol\":4684:4693  proposals */\n      0x02\n        /* \"contracts/3_Ballot.sol\":4694:4711  winningProposal() */\n      tag_101\n        /* \"contracts/3_Ballot.sol\":4694:4709  winningProposal */\n      tag_30\n        /* \"contracts/3_Ballot.sol\":4694:4711  winningProposal() */\n      jump\t// in\n    tag_101:\n        /* \"contracts/3_Ballot.sol\":4684:4712  proposals[winningProposal()] */\n      dup2\n      sload\n      dup2\n      lt\n      tag_102\n      jumpi\n      tag_103\n      tag_54\n      jump\t// in\n    tag_103:\n    tag_102:\n      swap1\n      0x00\n      mstore\n      keccak256(0x00, 0x20)\n      swap1\n      0x02\n      mul\n      add\n        /* \"contracts/3_Ballot.sol\":4684:4717  proposals[winningProposal()].name */\n      0x00\n      add\n      sload\n        /* \"contracts/3_Ballot.sol\":4670:4717  winnerName_ = proposals[winningProposal()].name */\n      swap1\n      pop\n        /* \"contracts/3_Ballot.sol\":4580:4724  function winnerName() public view... */\n      swap1\n      jump\t// out\n        /* \"#utility.yul\":7:146   */\n    tag_106:\n        /* \"#utility.yul\":53:58   */\n      0x00\n        /* \"#utility.yul\":91:97   */\n      dup2\n        /* \"#utility.yul\":78:98   */\n      calldataload\n        /* \"#utility.yul\":69:98   */\n      swap1\n      pop\n        /* \"#utility.yul\":107:140   */\n      tag_108\n        /* \"#utility.yul\":134:139   */\n      dup2\n        /* \"#utility.yul\":107:140   */\n      tag_109\n      jump\t// in\n    tag_108:\n        /* \"#utility.yul\":7:146   */\n      swap3\n      swap2\n      pop\n      pop\n      jump\t// out\n        /* \"#utility.yul\":152:291   */\n    tag_110:\n        /* \"#utility.yul\":198:203   */\n      0x00\n        /* \"#utility.yul\":236:242   */\n      dup2\n        /* \"#utility.yul\":223:243   */\n      calldataload\n        /* \"#utility.yul\":214:243   */\n      swap1\n      pop\n        /* \"#utility.yul\":252:285   */\n      tag_112\n        /* \"#utility.yul\":279:284   */\n      dup2\n        /* \"#utility.yul\":252:285   */\n      tag_113\n      jump\t// in\n    tag_112:\n        /* \"#utility.yul\":152:291   */\n      swap3\n      swap2\n      pop\n      pop\n      jump\t// out\n        /* \"#utility.yul\":297:626   */\n    tag_27:\n        /* \"#utility.yul\":356:362   */\n      0x00\n        /* \"#utility.yul\":405:407   */\n      0x20\n        /* \"#utility.yul\":393:402   */\n      dup3\n        /* \"#utility.yul\":384:391   */\n      dup5\n        /* \"#utility.yul\":380:403   */\n      sub\n        /* \"#utility.yul\":376:408   */\n      slt\n        /* \"#utility.yul\":373:492   */\n      iszero\n      tag_115\n      jumpi\n        /* \"#utility.yul\":411:490   */\n      tag_116\n      tag_117\n      jump\t// in\n    tag_116:\n        /* \"#utility.yul\":373:492   */\n    tag_115:\n        /* \"#utility.yul\":531:532   */\n      0x00\n        /* \"#utility.yul\":556:609   */\n      tag_118\n        /* \"#utility.yul\":601:608   */\n      dup5\n        /* \"#utility.yul\":592:598   */\n      dup3\n        /* \"#utility.yul\":581:590   */\n      dup6\n        /* \"#utility.yul\":577:599   */\n      add\n        /* \"#utility.yul\":556:609   */\n      tag_106\n      jump\t// in\n    tag_118:\n        /* \"#utility.yul\":546:609   */\n      swap2\n      pop\n        /* \"#utility.yul\":502:619   */\n      pop\n        /* \"#utility.yul\":297:626   */\n      swap3\n      swap2\n      pop\n      pop\n      jump\t// out\n        /* \"#utility.yul\":632:961   */\n    tag_14:\n        /* \"#utility.yul\":691:697   */\n      0x00\n        /* \"#utility.yul\":740:742   */\n      0x20\n        /* \"#utility.yul\":728:737   */\n      dup3\n        /* \"#utility.yul\":719:726   */\n      dup5\n        /* \"#utility.yul\":715:738   */\n      sub\n        /* \"#utility.yul\":711:743   */\n      slt\n        /* \"#utility.yul\":708:827   */\n      iszero\n      tag_120\n      jumpi\n        /* \"#utility.yul\":746:825   */\n      tag_121\n      tag_117\n      jump\t// in\n    tag_121:\n        /* \"#utility.yul\":708:827   */\n    tag_120:\n        /* \"#utility.yul\":866:867   */\n      0x00\n        /* \"#utility.yul\":891:944   */\n      tag_122\n        /* \"#utility.yul\":936:943   */\n      dup5\n        /* \"#utility.yul\":927:933   */\n      dup3\n        /* \"#utility.yul\":916:925   */\n      dup6\n        /* \"#utility.yul\":912:934   */\n      add\n        /* \"#utility.yul\":891:944   */\n      tag_110\n      jump\t// in\n    tag_122:\n        /* \"#utility.yul\":881:944   */\n      swap2\n      pop\n        /* \"#utility.yul\":837:954   */\n      pop\n        /* \"#utility.yul\":632:961   */\n      swap3\n      swap2\n      pop\n      pop\n      jump\t// out\n        /* \"#utility.yul\":967:1085   */\n    tag_123:\n        /* \"#utility.yul\":1054:1078   */\n      tag_125\n        /* \"#utility.yul\":1072:1077   */\n      dup2\n        /* \"#utility.yul\":1054:1078   */\n      tag_126\n      jump\t// in\n    tag_125:\n        /* \"#utility.yul\":1049:1052   */\n      dup3\n        /* \"#utility.yul\":1042:1079   */\n      mstore\n        /* \"#utility.yul\":967:1085   */\n      pop\n      pop\n      jump\t// out\n        /* \"#utility.yul\":1091:1200   */\n    tag_127:\n        /* \"#utility.yul\":1172:1193   */\n      tag_129\n        /* \"#utility.yul\":1187:1192   */\n      dup2\n        /* \"#utility.yul\":1172:1193   */\n      tag_130\n      jump\t// in\n    tag_129:\n        /* \"#utility.yul\":1167:1170   */\n      dup3\n        /* \"#utility.yul\":1160:1194   */\n      mstore\n        /* \"#utility.yul\":1091:1200   */\n      pop\n      pop\n      jump\t// out\n        /* \"#utility.yul\":1206:1324   */\n    tag_131:\n        /* \"#utility.yul\":1293:1317   */\n      tag_133\n        /* \"#utility.yul\":1311:1316   */\n      dup2\n        /* \"#utility.yul\":1293:1317   */\n      tag_134\n      jump\t// in\n    tag_133:\n        /* \"#utility.yul\":1288:1291   */\n      dup3\n        /* \"#utility.yul\":1281:1318   */\n      mstore\n        /* \"#utility.yul\":1206:1324   */\n      pop\n      pop\n      jump\t// out\n        /* \"#utility.yul\":1330:1696   */\n    tag_135:\n        /* \"#utility.yul\":1472:1475   */\n      0x00\n        /* \"#utility.yul\":1493:1560   */\n      tag_137\n        /* \"#utility.yul\":1557:1559   */\n      0x14\n        /* \"#utility.yul\":1552:1555   */\n      dup4\n        /* \"#utility.yul\":1493:1560   */\n      tag_138\n      jump\t// in\n    tag_137:\n        /* \"#utility.yul\":1486:1560   */\n      swap2\n      pop\n        /* \"#utility.yul\":1569:1662   */\n      tag_139\n        /* \"#utility.yul\":1658:1661   */\n      dup3\n        /* \"#utility.yul\":1569:1662   */\n      tag_140\n      jump\t// in\n    tag_139:\n        /* \"#utility.yul\":1687:1689   */\n      0x20\n        /* \"#utility.yul\":1682:1685   */\n      dup3\n        /* \"#utility.yul\":1678:1690   */\n      add\n        /* \"#utility.yul\":1671:1690   */\n      swap1\n      pop\n        /* \"#utility.yul\":1330:1696   */\n      swap2\n      swap1\n      pop\n      jump\t// out\n        /* \"#utility.yul\":1702:2068   */\n    tag_141:\n        /* \"#utility.yul\":1844:1847   */\n      0x00\n        /* \"#utility.yul\":1865:1932   */\n      tag_143\n        /* \"#utility.yul\":1929:1931   */\n      0x0e\n        /* \"#utility.yul\":1924:1927   */\n      dup4\n        /* \"#utility.yul\":1865:1932   */\n      tag_138\n      jump\t// in\n    tag_143:\n        /* \"#utility.yul\":1858:1932   */\n      swap2\n      pop\n        /* \"#utility.yul\":1941:2034   */\n      tag_144\n        /* \"#utility.yul\":2030:2033   */\n      dup3\n        /* \"#utility.yul\":1941:2034   */\n      tag_145\n      jump\t// in\n    tag_144:\n        /* \"#utility.yul\":2059:2061   */\n      0x20\n        /* \"#utility.yul\":2054:2057   */\n      dup3\n        /* \"#utility.yul\":2050:2062   */\n      add\n        /* \"#utility.yul\":2043:2062   */\n      swap1\n      pop\n        /* \"#utility.yul\":1702:2068   */\n      swap2\n      swap1\n      pop\n      jump\t// out\n        /* \"#utility.yul\":2074:2440   */\n    tag_146:\n        /* \"#utility.yul\":2216:2219   */\n      0x00\n        /* \"#utility.yul\":2237:2304   */\n      tag_148\n        /* \"#utility.yul\":2301:2303   */\n      0x12\n        /* \"#utility.yul\":2296:2299   */\n      dup4\n        /* \"#utility.yul\":2237:2304   */\n      tag_138\n      jump\t// in\n    tag_148:\n        /* \"#utility.yul\":2230:2304   */\n      swap2\n      pop\n        /* \"#utility.yul\":2313:2406   */\n      tag_149\n        /* \"#utility.yul\":2402:2405   */\n      dup3\n        /* \"#utility.yul\":2313:2406   */\n      tag_150\n      jump\t// in\n    tag_149:\n        /* \"#utility.yul\":2431:2433   */\n      0x20\n        /* \"#utility.yul\":2426:2429   */\n      dup3\n        /* \"#utility.yul\":2422:2434   */\n      add\n        /* \"#utility.yul\":2415:2434   */\n      swap1\n      pop\n        /* \"#utility.yul\":2074:2440   */\n      swap2\n      swap1\n      pop\n      jump\t// out\n        /* \"#utility.yul\":2446:2812   */\n    tag_151:\n        /* \"#utility.yul\":2588:2591   */\n      0x00\n        /* \"#utility.yul\":2609:2676   */\n      tag_153\n        /* \"#utility.yul\":2673:2675   */\n      0x28\n        /* \"#utility.yul\":2668:2671   */\n      dup4\n        /* \"#utility.yul\":2609:2676   */\n      tag_138\n      jump\t// in\n    tag_153:\n        /* \"#utility.yul\":2602:2676   */\n      swap2\n      pop\n        /* \"#utility.yul\":2685:2778   */\n      tag_154\n        /* \"#utility.yul\":2774:2777   */\n      dup3\n        /* \"#utility.yul\":2685:2778   */\n      tag_155\n      jump\t// in\n    tag_154:\n        /* \"#utility.yul\":2803:2805   */\n      0x40\n        /* \"#utility.yul\":2798:2801   */\n      dup3\n        /* \"#utility.yul\":2794:2806   */\n      add\n        /* \"#utility.yul\":2787:2806   */\n      swap1\n      pop\n        /* \"#utility.yul\":2446:2812   */\n      swap2\n      swap1\n      pop\n      jump\t// out\n        /* \"#utility.yul\":2818:3184   */\n    tag_156:\n        /* \"#utility.yul\":2960:2963   */\n      0x00\n        /* \"#utility.yul\":2981:3048   */\n      tag_158\n        /* \"#utility.yul\":3045:3047   */\n      0x19\n        /* \"#utility.yul\":3040:3043   */\n      dup4\n        /* \"#utility.yul\":2981:3048   */\n      tag_138\n      jump\t// in\n    tag_158:\n        /* \"#utility.yul\":2974:3048   */\n      swap2\n      pop\n        /* \"#utility.yul\":3057:3150   */\n      tag_159\n        /* \"#utility.yul\":3146:3149   */\n      dup3\n        /* \"#utility.yul\":3057:3150   */\n      tag_160\n      jump\t// in\n    tag_159:\n        /* \"#utility.yul\":3175:3177   */\n      0x20\n        /* \"#utility.yul\":3170:3173   */\n      dup3\n        /* \"#utility.yul\":3166:3178   */\n      add\n        /* \"#utility.yul\":3159:3178   */\n      swap1\n      pop\n        /* \"#utility.yul\":2818:3184   */\n      swap2\n      swap1\n      pop\n      jump\t// out\n        /* \"#utility.yul\":3190:3556   */\n    tag_161:\n        /* \"#utility.yul\":3332:3335   */\n      0x00\n        /* \"#utility.yul\":3353:3420   */\n      tag_163\n        /* \"#utility.yul\":3417:3419   */\n      0x18\n        /* \"#utility.yul\":3412:3415   */\n      dup4\n        /* \"#utility.yul\":3353:3420   */\n      tag_138\n      jump\t// in\n    tag_163:\n        /* \"#utility.yul\":3346:3420   */\n      swap2\n      pop\n        /* \"#utility.yul\":3429:3522   */\n      tag_164\n        /* \"#utility.yul\":3518:3521   */\n      dup3\n        /* \"#utility.yul\":3429:3522   */\n      tag_165\n      jump\t// in\n    tag_164:\n        /* \"#utility.yul\":3547:3549   */\n      0x20\n        /* \"#utility.yul\":3542:3545   */\n      dup3\n        /* \"#utility.yul\":3538:3550   */\n      add\n        /* \"#utility.yul\":3531:3550   */\n      swap1\n      pop\n        /* \"#utility.yul\":3190:3556   */\n      swap2\n      swap1\n      pop\n      jump\t// out\n        /* \"#utility.yul\":3562:3928   */\n    tag_166:\n        /* \"#utility.yul\":3704:3707   */\n      0x00\n        /* \"#utility.yul\":3725:3792   */\n      tag_168\n        /* \"#utility.yul\":3789:3791   */\n      0x1e\n        /* \"#utility.yul\":3784:3787   */\n      dup4\n        /* \"#utility.yul\":3725:3792   */\n      tag_138\n      jump\t// in\n    tag_168:\n        /* \"#utility.yul\":3718:3792   */\n      swap2\n      pop\n        /* \"#utility.yul\":3801:3894   */\n      tag_169\n        /* \"#utility.yul\":3890:3893   */\n      dup3\n        /* \"#utility.yul\":3801:3894   */\n      tag_170\n      jump\t// in\n    tag_169:\n        /* \"#utility.yul\":3919:3921   */\n      0x20\n        /* \"#utility.yul\":3914:3917   */\n      dup3\n        /* \"#utility.yul\":3910:3922   */\n      add\n        /* \"#utility.yul\":3903:3922   */\n      swap1\n      pop\n        /* \"#utility.yul\":3562:3928   */\n      swap2\n      swap1\n      pop\n      jump\t// out\n        /* \"#utility.yul\":3934:4052   */\n    tag_171:\n        /* \"#utility.yul\":4021:4045   */\n      tag_173\n        /* \"#utility.yul\":4039:4044   */\n      dup2\n        /* \"#utility.yul\":4021:4045   */\n      tag_174\n      jump\t// in\n    tag_173:\n        /* \"#utility.yul\":4016:4019   */\n      dup3\n        /* \"#utility.yul\":4009:4046   */\n      mstore\n        /* \"#utility.yul\":3934:4052   */\n      pop\n      pop\n      jump\t// out\n        /* \"#utility.yul\":4058:4280   */\n    tag_24:\n        /* \"#utility.yul\":4151:4155   */\n      0x00\n        /* \"#utility.yul\":4189:4191   */\n      0x20\n        /* \"#utility.yul\":4178:4187   */\n      dup3\n        /* \"#utility.yul\":4174:4192   */\n      add\n        /* \"#utility.yul\":4166:4192   */\n      swap1\n      pop\n        /* \"#utility.yul\":4202:4273   */\n      tag_176\n        /* \"#utility.yul\":4270:4271   */\n      0x00\n        /* \"#utility.yul\":4259:4268   */\n      dup4\n        /* \"#utility.yul\":4255:4272   */\n      add\n        /* \"#utility.yul\":4246:4252   */\n      dup5\n        /* \"#utility.yul\":4202:4273   */\n      tag_123\n      jump\t// in\n    tag_176:\n        /* \"#utility.yul\":4058:4280   */\n      swap3\n      swap2\n      pop\n      pop\n      jump\t// out\n        /* \"#utility.yul\":4286:4508   */\n    tag_44:\n        /* \"#utility.yul\":4379:4383   */\n      0x00\n        /* \"#utility.yul\":4417:4419   */\n      0x20\n        /* \"#utility.yul\":4406:4415   */\n      dup3\n        /* \"#utility.yul\":4402:4420   */\n      add\n        /* \"#utility.yul\":4394:4420   */\n      swap1\n      pop\n        /* \"#utility.yul\":4430:4501   */\n      tag_178\n        /* \"#utility.yul\":4498:4499   */\n      0x00\n        /* \"#utility.yul\":4487:4496   */\n      dup4\n        /* \"#utility.yul\":4483:4500   */\n      add\n        /* \"#utility.yul\":4474:4480   */\n      dup5\n        /* \"#utility.yul\":4430:4501   */\n      tag_131\n      jump\t// in\n    tag_178:\n        /* \"#utility.yul\":4286:4508   */\n      swap3\n      swap2\n      pop\n      pop\n      jump\t// out\n        /* \"#utility.yul\":4514:4846   */\n    tag_20:\n        /* \"#utility.yul\":4635:4639   */\n      0x00\n        /* \"#utility.yul\":4673:4675   */\n      0x40\n        /* \"#utility.yul\":4662:4671   */\n      dup3\n        /* \"#utility.yul\":4658:4676   */\n      add\n        /* \"#utility.yul\":4650:4676   */\n      swap1\n      pop\n        /* \"#utility.yul\":4686:4757   */\n      tag_180\n        /* \"#utility.yul\":4754:4755   */\n      0x00\n        /* \"#utility.yul\":4743:4752   */\n      dup4\n        /* \"#utility.yul\":4739:4756   */\n      add\n        /* \"#utility.yul\":4730:4736   */\n      dup6\n        /* \"#utility.yul\":4686:4757   */\n      tag_131\n      jump\t// in\n    tag_180:\n        /* \"#utility.yul\":4767:4839   */\n      tag_181\n        /* \"#utility.yul\":4835:4837   */\n      0x20\n        /* \"#utility.yul\":4824:4833   */\n      dup4\n        /* \"#utility.yul\":4820:4838   */\n      add\n        /* \"#utility.yul\":4811:4817   */\n      dup5\n        /* \"#utility.yul\":4767:4839   */\n      tag_171\n      jump\t// in\n    tag_181:\n        /* \"#utility.yul\":4514:4846   */\n      swap4\n      swap3\n      pop\n      pop\n      pop\n      jump\t// out\n        /* \"#utility.yul\":4852:5271   */\n    tag_48:\n        /* \"#utility.yul\":5018:5022   */\n      0x00\n        /* \"#utility.yul\":5056:5058   */\n      0x20\n        /* \"#utility.yul\":5045:5054   */\n      dup3\n        /* \"#utility.yul\":5041:5059   */\n      add\n        /* \"#utility.yul\":5033:5059   */\n      swap1\n      pop\n        /* \"#utility.yul\":5105:5114   */\n      dup2\n        /* \"#utility.yul\":5099:5103   */\n      dup2\n        /* \"#utility.yul\":5095:5115   */\n      sub\n        /* \"#utility.yul\":5091:5092   */\n      0x00\n        /* \"#utility.yul\":5080:5089   */\n      dup4\n        /* \"#utility.yul\":5076:5093   */\n      add\n        /* \"#utility.yul\":5069:5116   */\n      mstore\n        /* \"#utility.yul\":5133:5264   */\n      tag_183\n        /* \"#utility.yul\":5259:5263   */\n      dup2\n        /* \"#utility.yul\":5133:5264   */\n      tag_135\n      jump\t// in\n    tag_183:\n        /* \"#utility.yul\":5125:5264   */\n      swap1\n      pop\n        /* \"#utility.yul\":4852:5271   */\n      swap2\n      swap1\n      pop\n      jump\t// out\n        /* \"#utility.yul\":5277:5696   */\n    tag_51:\n        /* \"#utility.yul\":5443:5447   */\n      0x00\n        /* \"#utility.yul\":5481:5483   */\n      0x20\n        /* \"#utility.yul\":5470:5479   */\n      dup3\n        /* \"#utility.yul\":5466:5484   */\n      add\n        /* \"#utility.yul\":5458:5484   */\n      swap1\n      pop\n        /* \"#utility.yul\":5530:5539   */\n      dup2\n        /* \"#utility.yul\":5524:5528   */\n      dup2\n        /* \"#utility.yul\":5520:5540   */\n      sub\n        /* \"#utility.yul\":5516:5517   */\n      0x00\n        /* \"#utility.yul\":5505:5514   */\n      dup4\n        /* \"#utility.yul\":5501:5518   */\n      add\n        /* \"#utility.yul\":5494:5541   */\n      mstore\n        /* \"#utility.yul\":5558:5689   */\n      tag_185\n        /* \"#utility.yul\":5684:5688   */\n      dup2\n        /* \"#utility.yul\":5558:5689   */\n      tag_141\n      jump\t// in\n    tag_185:\n        /* \"#utility.yul\":5550:5689   */\n      swap1\n      pop\n        /* \"#utility.yul\":5277:5696   */\n      swap2\n      swap1\n      pop\n      jump\t// out\n        /* \"#utility.yul\":5702:6121   */\n    tag_63:\n        /* \"#utility.yul\":5868:5872   */\n      0x00\n        /* \"#utility.yul\":5906:5908   */\n      0x20\n        /* \"#utility.yul\":5895:5904   */\n      dup3\n        /* \"#utility.yul\":5891:5909   */\n      add\n        /* \"#utility.yul\":5883:5909   */\n      swap1\n      pop\n        /* \"#utility.yul\":5955:5964   */\n      dup2\n        /* \"#utility.yul\":5949:5953   */\n      dup2\n        /* \"#utility.yul\":5945:5965   */\n      sub\n        /* \"#utility.yul\":5941:5942   */\n      0x00\n        /* \"#utility.yul\":5930:5939   */\n      dup4\n        /* \"#utility.yul\":5926:5943   */\n      add\n        /* \"#utility.yul\":5919:5966   */\n      mstore\n        /* \"#utility.yul\":5983:6114   */\n      tag_187\n        /* \"#utility.yul\":6109:6113   */\n      dup2\n        /* \"#utility.yul\":5983:6114   */\n      tag_146\n      jump\t// in\n    tag_187:\n        /* \"#utility.yul\":5975:6114   */\n      swap1\n      pop\n        /* \"#utility.yul\":5702:6121   */\n      swap2\n      swap1\n      pop\n      jump\t// out\n        /* \"#utility.yul\":6127:6546   */\n    tag_95:\n        /* \"#utility.yul\":6293:6297   */\n      0x00\n        /* \"#utility.yul\":6331:6333   */\n      0x20\n        /* \"#utility.yul\":6320:6329   */\n      dup3\n        /* \"#utility.yul\":6316:6334   */\n      add\n        /* \"#utility.yul\":6308:6334   */\n      swap1\n      pop\n        /* \"#utility.yul\":6380:6389   */\n      dup2\n        /* \"#utility.yul\":6374:6378   */\n      dup2\n        /* \"#utility.yul\":6370:6390   */\n      sub\n        /* \"#utility.yul\":6366:6367   */\n      0x00\n        /* \"#utility.yul\":6355:6364   */\n      dup4\n        /* \"#utility.yul\":6351:6368   */\n      add\n        /* \"#utility.yul\":6344:6391   */\n      mstore\n        /* \"#utility.yul\":6408:6539   */\n      tag_189\n        /* \"#utility.yul\":6534:6538   */\n      dup2\n        /* \"#utility.yul\":6408:6539   */\n      tag_151\n      jump\t// in\n    tag_189:\n        /* \"#utility.yul\":6400:6539   */\n      swap1\n      pop\n        /* \"#utility.yul\":6127:6546   */\n      swap2\n      swap1\n      pop\n      jump\t// out\n        /* \"#utility.yul\":6552:6971   */\n    tag_71:\n        /* \"#utility.yul\":6718:6722   */\n      0x00\n        /* \"#utility.yul\":6756:6758   */\n      0x20\n        /* \"#utility.yul\":6745:6754   */\n      dup3\n        /* \"#utility.yul\":6741:6759   */\n      add\n        /* \"#utility.yul\":6733:6759   */\n      swap1\n      pop\n        /* \"#utility.yul\":6805:6814   */\n      dup2\n        /* \"#utility.yul\":6799:6803   */\n      dup2\n        /* \"#utility.yul\":6795:6815   */\n      sub\n        /* \"#utility.yul\":6791:6792   */\n      0x00\n        /* \"#utility.yul\":6780:6789   */\n      dup4\n        /* \"#utility.yul\":6776:6793   */\n      add\n        /* \"#utility.yul\":6769:6816   */\n      mstore\n        /* \"#utility.yul\":6833:6964   */\n      tag_191\n        /* \"#utility.yul\":6959:6963   */\n      dup2\n        /* \"#utility.yul\":6833:6964   */\n      tag_156\n      jump\t// in\n    tag_191:\n        /* \"#utility.yul\":6825:6964   */\n      swap1\n      pop\n        /* \"#utility.yul\":6552:6971   */\n      swap2\n      swap1\n      pop\n      jump\t// out\n        /* \"#utility.yul\":6977:7396   */\n    tag_98:\n        /* \"#utility.yul\":7143:7147   */\n      0x00\n        /* \"#utility.yul\":7181:7183   */\n      0x20\n        /* \"#utility.yul\":7170:7179   */\n      dup3\n        /* \"#utility.yul\":7166:7184   */\n      add\n        /* \"#utility.yul\":7158:7184   */\n      swap1\n      pop\n        /* \"#utility.yul\":7230:7239   */\n      dup2\n        /* \"#utility.yul\":7224:7228   */\n      dup2\n        /* \"#utility.yul\":7220:7240   */\n      sub\n        /* \"#utility.yul\":7216:7217   */\n      0x00\n        /* \"#utility.yul\":7205:7214   */\n      dup4\n        /* \"#utility.yul\":7201:7218   */\n      add\n        /* \"#utility.yul\":7194:7241   */\n      mstore\n        /* \"#utility.yul\":7258:7389   */\n      tag_193\n        /* \"#utility.yul\":7384:7388   */\n      dup2\n        /* \"#utility.yul\":7258:7389   */\n      tag_161\n      jump\t// in\n    tag_193:\n        /* \"#utility.yul\":7250:7389   */\n      swap1\n      pop\n        /* \"#utility.yul\":6977:7396   */\n      swap2\n      swap1\n      pop\n      jump\t// out\n        /* \"#utility.yul\":7402:7821   */\n    tag_66:\n        /* \"#utility.yul\":7568:7572   */\n      0x00\n        /* \"#utility.yul\":7606:7608   */\n      0x20\n        /* \"#utility.yul\":7595:7604   */\n      dup3\n        /* \"#utility.yul\":7591:7609   */\n      add\n        /* \"#utility.yul\":7583:7609   */\n      swap1\n      pop\n        /* \"#utility.yul\":7655:7664   */\n      dup2\n        /* \"#utility.yul\":7649:7653   */\n      dup2\n        /* \"#utility.yul\":7645:7665   */\n      sub\n        /* \"#utility.yul\":7641:7642   */\n      0x00\n        /* \"#utility.yul\":7630:7639   */\n      dup4\n        /* \"#utility.yul\":7626:7643   */\n      add\n        /* \"#utility.yul\":7619:7666   */\n      mstore\n        /* \"#utility.yul\":7683:7814   */\n      tag_195\n        /* \"#utility.yul\":7809:7813   */\n      dup2\n        /* \"#utility.yul\":7683:7814   */\n      tag_166\n      jump\t// in\n    tag_195:\n        /* \"#utility.yul\":7675:7814   */\n      swap1\n      pop\n        /* \"#utility.yul\":7402:7821   */\n      swap2\n      swap1\n      pop\n      jump\t// out\n        /* \"#utility.yul\":7827:8049   */\n    tag_32:\n        /* \"#utility.yul\":7920:7924   */\n      0x00\n        /* \"#utility.yul\":7958:7960   */\n      0x20\n        /* \"#utility.yul\":7947:7956   */\n      dup3\n        /* \"#utility.yul\":7943:7961   */\n      add\n        /* \"#utility.yul\":7935:7961   */\n      swap1\n      pop\n        /* \"#utility.yul\":7971:8042   */\n      tag_197\n        /* \"#utility.yul\":8039:8040   */\n      0x00\n        /* \"#utility.yul\":8028:8037   */\n      dup4\n        /* \"#utility.yul\":8024:8041   */\n      add\n        /* \"#utility.yul\":8015:8021   */\n      dup5\n        /* \"#utility.yul\":7971:8042   */\n      tag_171\n      jump\t// in\n    tag_197:\n        /* \"#utility.yul\":7827:8049   */\n      swap3\n      swap2\n      pop\n      pop\n      jump\t// out\n        /* \"#utility.yul\":8055:8596   */\n    tag_40:\n        /* \"#utility.yul\":8226:8230   */\n      0x00\n        /* \"#utility.yul\":8264:8267   */\n      0x80\n        /* \"#utility.yul\":8253:8262   */\n      dup3\n        /* \"#utility.yul\":8249:8268   */\n      add\n        /* \"#utility.yul\":8241:8268   */\n      swap1\n      pop\n        /* \"#utility.yul\":8278:8349   */\n      tag_199\n        /* \"#utility.yul\":8346:8347   */\n      0x00\n        /* \"#utility.yul\":8335:8344   */\n      dup4\n        /* \"#utility.yul\":8331:8348   */\n      add\n        /* \"#utility.yul\":8322:8328   */\n      dup8\n        /* \"#utility.yul\":8278:8349   */\n      tag_171\n      jump\t// in\n    tag_199:\n        /* \"#utility.yul\":8359:8425   */\n      tag_200\n        /* \"#utility.yul\":8421:8423   */\n      0x20\n        /* \"#utility.yul\":8410:8419   */\n      dup4\n        /* \"#utility.yul\":8406:8424   */\n      add\n        /* \"#utility.yul\":8397:8403   */\n      dup7\n        /* \"#utility.yul\":8359:8425   */\n      tag_127\n      jump\t// in\n    tag_200:\n        /* \"#utility.yul\":8435:8507   */\n      tag_201\n        /* \"#utility.yul\":8503:8505   */\n      0x40\n        /* \"#utility.yul\":8492:8501   */\n      dup4\n        /* \"#utility.yul\":8488:8506   */\n      add\n        /* \"#utility.yul\":8479:8485   */\n      dup6\n        /* \"#utility.yul\":8435:8507   */\n      tag_123\n      jump\t// in\n    tag_201:\n        /* \"#utility.yul\":8517:8589   */\n      tag_202\n        /* \"#utility.yul\":8585:8587   */\n      0x60\n        /* \"#utility.yul\":8574:8583   */\n      dup4\n        /* \"#utility.yul\":8570:8588   */\n      add\n        /* \"#utility.yul\":8561:8567   */\n      dup5\n        /* \"#utility.yul\":8517:8589   */\n      tag_171\n      jump\t// in\n    tag_202:\n        /* \"#utility.yul\":8055:8596   */\n      swap6\n      swap5\n      pop\n      pop\n      pop\n      pop\n      pop\n      jump\t// out\n        /* \"#utility.yul\":8683:8852   */\n    tag_138:\n        /* \"#utility.yul\":8767:8778   */\n      0x00\n        /* \"#utility.yul\":8801:8807   */\n      dup3\n        /* \"#utility.yul\":8796:8799   */\n      dup3\n        /* \"#utility.yul\":8789:8808   */\n      mstore\n        /* \"#utility.yul\":8841:8845   */\n      0x20\n        /* \"#utility.yul\":8836:8839   */\n      dup3\n        /* \"#utility.yul\":8832:8846   */\n      add\n        /* \"#utility.yul\":8817:8846   */\n      swap1\n      pop\n        /* \"#utility.yul\":8683:8852   */\n      swap3\n      swap2\n      pop\n      pop\n      jump\t// out\n        /* \"#utility.yul\":8858:9163   */\n    tag_57:\n        /* \"#utility.yul\":8898:8901   */\n      0x00\n        /* \"#utility.yul\":8917:8937   */\n      tag_207\n        /* \"#utility.yul\":8935:8936   */\n      dup3\n        /* \"#utility.yul\":8917:8937   */\n      tag_174\n      jump\t// in\n    tag_207:\n        /* \"#utility.yul\":8912:8937   */\n      swap2\n      pop\n        /* \"#utility.yul\":8951:8971   */\n      tag_208\n        /* \"#utility.yul\":8969:8970   */\n      dup4\n        /* \"#utility.yul\":8951:8971   */\n      tag_174\n      jump\t// in\n    tag_208:\n        /* \"#utility.yul\":8946:8971   */\n      swap3\n      pop\n        /* \"#utility.yul\":9105:9106   */\n      dup3\n        /* \"#utility.yul\":9037:9103   */\n      0xffffffffffffffffffffffffffffffffffffffffffffffffffffffffffffffff\n        /* \"#utility.yul\":9033:9107   */\n      sub\n        /* \"#utility.yul\":9030:9031   */\n      dup3\n        /* \"#utility.yul\":9027:9108   */\n      gt\n        /* \"#utility.yul\":9024:9131   */\n      iszero\n      tag_209\n      jumpi\n        /* \"#utility.yul\":9111:9129   */\n      tag_210\n      tag_211\n      jump\t// in\n    tag_210:\n        /* \"#utility.yul\":9024:9131   */\n    tag_209:\n        /* \"#utility.yul\":9155:9156   */\n      dup3\n        /* \"#utility.yul\":9152:9153   */\n      dup3\n        /* \"#utility.yul\":9148:9157   */\n      add\n        /* \"#utility.yul\":9141:9157   */\n      swap1\n      pop\n        /* \"#utility.yul\":8858:9163   */\n      swap3\n      swap2\n      pop\n      pop\n      jump\t// out\n        /* \"#utility.yul\":9169:9265   */\n    tag_126:\n        /* \"#utility.yul\":9206:9213   */\n      0x00\n        /* \"#utility.yul\":9235:9259   */\n      tag_213\n        /* \"#utility.yul\":9253:9258   */\n      dup3\n        /* \"#utility.yul\":9235:9259   */\n      tag_214\n      jump\t// in\n    tag_213:\n        /* \"#utility.yul\":9224:9259   */\n      swap1\n      pop\n        /* \"#utility.yul\":9169:9265   */\n      swap2\n      swap1\n      pop\n      jump\t// out\n        /* \"#utility.yul\":9271:9361   */\n    tag_130:\n        /* \"#utility.yul\":9305:9312   */\n      0x00\n        /* \"#utility.yul\":9348:9353   */\n      dup2\n        /* \"#utility.yul\":9341:9354   */\n      iszero\n        /* \"#utility.yul\":9334:9355   */\n      iszero\n        /* \"#utility.yul\":9323:9355   */\n      swap1\n      pop\n        /* \"#utility.yul\":9271:9361   */\n      swap2\n      swap1\n      pop\n      jump\t// out\n        /* \"#utility.yul\":9367:9444   */\n    tag_134:\n        /* \"#utility.yul\":9404:9411   */\n      0x00\n        /* \"#utility.yul\":9433:9438   */\n      dup2\n        /* \"#utility.yul\":9422:9438   */\n      swap1\n      pop\n        /* \"#utility.yul\":9367:9444   */\n      swap2\n      swap1\n      pop\n      jump\t// out\n        /* \"#utility.yul\":9450:9576   */\n    tag_214:\n        /* \"#utility.yul\":9487:9494   */\n      0x00\n        /* \"#utility.yul\":9527:9569   */\n      0xffffffffffffffffffffffffffffffffffffffff\n        /* \"#utility.yul\":9520:9525   */\n      dup3\n        /* \"#utility.yul\":9516:9570   */\n      and\n        /* \"#utility.yul\":9505:9570   */\n      swap1\n      pop\n        /* \"#utility.yul\":9450:9576   */\n      swap2\n      swap1\n      pop\n      jump\t// out\n        /* \"#utility.yul\":9582:9659   */\n    tag_174:\n        /* \"#utility.yul\":9619:9626   */\n      0x00\n        /* \"#utility.yul\":9648:9653   */\n      dup2\n        /* \"#utility.yul\":9637:9653   */\n      swap1\n      pop\n        /* \"#utility.yul\":9582:9659   */\n      swap2\n      swap1\n      pop\n      jump\t// out\n        /* \"#utility.yul\":9665:9898   */\n    tag_91:\n        /* \"#utility.yul\":9704:9707   */\n      0x00\n        /* \"#utility.yul\":9727:9751   */\n      tag_220\n        /* \"#utility.yul\":9745:9750   */\n      dup3\n        /* \"#utility.yul\":9727:9751   */\n      tag_174\n      jump\t// in\n    tag_220:\n        /* \"#utility.yul\":9718:9751   */\n      swap2\n      pop\n        /* \"#utility.yul\":9773:9839   */\n      0xffffffffffffffffffffffffffffffffffffffffffffffffffffffffffffffff\n        /* \"#utility.yul\":9766:9771   */\n      dup3\n        /* \"#utility.yul\":9763:9840   */\n      eq\n        /* \"#utility.yul\":9760:9863   */\n      iszero\n      tag_221\n      jumpi\n        /* \"#utility.yul\":9843:9861   */\n      tag_222\n      tag_211\n      jump\t// in\n    tag_222:\n        /* \"#utility.yul\":9760:9863   */\n    tag_221:\n        /* \"#utility.yul\":9890:9891   */\n      0x01\n        /* \"#utility.yul\":9883:9888   */\n      dup3\n        /* \"#utility.yul\":9879:9892   */\n      add\n        /* \"#utility.yul\":9872:9892   */\n      swap1\n      pop\n        /* \"#utility.yul\":9665:9898   */\n      swap2\n      swap1\n      pop\n      jump\t// out\n        /* \"#utility.yul\":9904:10084   */\n    tag_211:\n        /* \"#utility.yul\":9952:10029   */\n      0x4e487b7100000000000000000000000000000000000000000000000000000000\n        /* \"#utility.yul\":9949:9950   */\n      0x00\n        /* \"#utility.yul\":9942:10030   */\n      mstore\n        /* \"#utility.yul\":10049:10053   */\n      0x11\n        /* \"#utility.yul\":10046:10047   */\n      0x04\n        /* \"#utility.yul\":10039:10054   */\n      mstore\n        /* \"#utility.yul\":10073:10077   */\n      0x24\n        /* \"#utility.yul\":10070:10071   */\n      0x00\n        /* \"#utility.yul\":10063:10078   */\n      revert\n        /* \"#utility.yul\":10090:10270   */\n    tag_54:\n        /* \"#utility.yul\":10138:10215   */\n      0x4e487b7100000000000000000000000000000000000000000000000000000000\n        /* \"#utility.yul\":10135:10136   */\n      0x00\n        /* \"#utility.yul\":10128:10216   */\n      mstore\n        /* \"#utility.yul\":10235:10239   */\n      0x32\n        /* \"#utility.yul\":10232:10233   */\n      0x04\n        /* \"#utility.yul\":10225:10240   */\n      mstore\n        /* \"#utility.yul\":10259:10263   */\n      0x24\n        /* \"#utility.yul\":10256:10257   */\n      0x00\n        /* \"#utility.yul\":10249:10264   */\n      revert\n        /* \"#utility.yul\":10399:10516   */\n    tag_117:\n        /* \"#utility.yul\":10508:10509   */\n      0x00\n        /* \"#utility.yul\":10505:10506   */\n      dup1\n        /* \"#utility.yul\":10498:10510   */\n      revert\n        /* \"#utility.yul\":10522:10692   */\n    tag_140:\n        /* \"#utility.yul\":10662:10684   */\n      0x486173206e6f20726967687420746f20766f7465000000000000000000000000\n        /* \"#utility.yul\":10658:10659   */\n      0x00\n        /* \"#utility.yul\":10650:10656   */\n      dup3\n        /* \"#utility.yul\":10646:10660   */\n      add\n        /* \"#utility.yul\":10639:10685   */\n      mstore\n        /* \"#utility.yul\":10522:10692   */\n      pop\n      jump\t// out\n        /* \"#utility.yul\":10698:10862   */\n    tag_145:\n        /* \"#utility.yul\":10838:10854   */\n      0x416c726561647920766f7465642e000000000000000000000000000000000000\n        /* \"#utility.yul\":10834:10835   */\n      0x00\n        /* \"#utility.yul\":10826:10832   */\n      dup3\n        /* \"#utility.yul\":10822:10836   */\n      add\n        /* \"#utility.yul\":10815:10855   */\n      mstore\n        /* \"#utility.yul\":10698:10862   */\n      pop\n      jump\t// out\n        /* \"#utility.yul\":10868:11036   */\n    tag_150:\n        /* \"#utility.yul\":11008:11028   */\n      0x596f7520616c726561647920766f7465642e0000000000000000000000000000\n        /* \"#utility.yul\":11004:11005   */\n      0x00\n        /* \"#utility.yul\":10996:11002   */\n      dup3\n        /* \"#utility.yul\":10992:11006   */\n      add\n        /* \"#utility.yul\":10985:11029   */\n      mstore\n        /* \"#utility.yul\":10868:11036   */\n      pop\n      jump\t// out\n        /* \"#utility.yul\":11042:11269   */\n    tag_155:\n        /* \"#utility.yul\":11182:11216   */\n      0x4f6e6c79206368616972706572736f6e2063616e206769766520726967687420\n        /* \"#utility.yul\":11178:11179   */\n      0x00\n        /* \"#utility.yul\":11170:11176   */\n      dup3\n        /* \"#utility.yul\":11166:11180   */\n      add\n        /* \"#utility.yul\":11159:11217   */\n      mstore\n        /* \"#utility.yul\":11251:11261   */\n      0x746f20766f74652e000000000000000000000000000000000000000000000000\n        /* \"#utility.yul\":11246:11248   */\n      0x20\n        /* \"#utility.yul\":11238:11244   */\n      dup3\n        /* \"#utility.yul\":11234:11249   */\n      add\n        /* \"#utility.yul\":11227:11262   */\n      mstore\n        /* \"#utility.yul\":11042:11269   */\n      pop\n      jump\t// out\n        /* \"#utility.yul\":11275:11450   */\n    tag_160:\n        /* \"#utility.yul\":11415:11442   */\n      0x466f756e64206c6f6f7020696e2064656c65676174696f6e2e00000000000000\n        /* \"#utility.yul\":11411:11412   */\n      0x00\n        /* \"#utility.yul\":11403:11409   */\n      dup3\n        /* \"#utility.yul\":11399:11413   */\n      add\n        /* \"#utility.yul\":11392:11443   */\n      mstore\n        /* \"#utility.yul\":11275:11450   */\n      pop\n      jump\t// out\n        /* \"#utility.yul\":11456:11630   */\n    tag_165:\n        /* \"#utility.yul\":11596:11622   */\n      0x54686520766f74657220616c726561647920766f7465642e0000000000000000\n        /* \"#utility.yul\":11592:11593   */\n      0x00\n        /* \"#utility.yul\":11584:11590   */\n      dup3\n        /* \"#utility.yul\":11580:11594   */\n      add\n        /* \"#utility.yul\":11573:11623   */\n      mstore\n        /* \"#utility.yul\":11456:11630   */\n      pop\n      jump\t// out\n        /* \"#utility.yul\":11636:11816   */\n    tag_170:\n        /* \"#utility.yul\":11776:11808   */\n      0x53656c662d64656c65676174696f6e20697320646973616c6c6f7765642e0000\n        /* \"#utility.yul\":11772:11773   */\n      0x00\n        /* \"#utility.yul\":11764:11770   */\n      dup3\n        /* \"#utility.yul\":11760:11774   */\n      add\n        /* \"#utility.yul\":11753:11809   */\n      mstore\n        /* \"#utility.yul\":11636:11816   */\n      pop\n      jump\t// out\n        /* \"#utility.yul\":11822:11944   */\n    tag_109:\n        /* \"#utility.yul\":11895:11919   */\n      tag_236\n        /* \"#utility.yul\":11913:11918   */\n      dup2\n        /* \"#utility.yul\":11895:11919   */\n      tag_126\n      jump\t// in\n    tag_236:\n        /* \"#utility.yul\":11888:11893   */\n      dup2\n        /* \"#utility.yul\":11885:11920   */\n      eq\n        /* \"#utility.yul\":11875:11938   */\n      tag_237\n      jumpi\n        /* \"#utility.yul\":11934:11935   */\n      0x00\n        /* \"#utility.yul\":11931:11932   */\n      dup1\n        /* \"#utility.yul\":11924:11936   */\n      revert\n        /* \"#utility.yul\":11875:11938   */\n    tag_237:\n        /* \"#utility.yul\":11822:11944   */\n      pop\n      jump\t// out\n        /* \"#utility.yul\":11950:12072   */\n    tag_113:\n        /* \"#utility.yul\":12023:12047   */\n      tag_239\n        /* \"#utility.yul\":12041:12046   */\n      dup2\n        /* \"#utility.yul\":12023:12047   */\n      tag_174\n      jump\t// in\n    tag_239:\n        /* \"#utility.yul\":12016:12021   */\n      dup2\n        /* \"#utility.yul\":12013:12048   */\n      eq\n        /* \"#utility.yul\":12003:12066   */\n      tag_240\n      jumpi\n        /* \"#utility.yul\":12062:12063   */\n      0x00\n        /* \"#utility.yul\":12059:12060   */\n      dup1\n        /* \"#utility.yul\":12052:12064   */\n      revert\n        /* \"#utility.yul\":12003:12066   */\n    tag_240:\n        /* \"#utility.yul\":11950:12072   */\n      pop\n      jump\t// out\n\n    auxdata: 0xa2646970667358221220a2a986c37dd18a7f35de9a78f33c856f93d73ca8bb97799938bf3e608bb19a3464736f6c63430008070033\n}\n",
				"bytecode": {
					"linkReferences": {},
					"object": "60806040523480156200001157600080fd5b506200001c620001e8565b7f6e616d653031000000000000000000000000000000000000000000000000000060001b8160006002811062000057576200005662000291565b5b6020020181815250507f6e616d653032000000000000000000000000000000000000000000000000000060001b816001600281106200009b576200009a62000291565b5b602002018181525050336000806101000a81548173ffffffffffffffffffffffffffffffffffffffff021916908373ffffffffffffffffffffffffffffffffffffffff16021790555060018060008060009054906101000a900473ffffffffffffffffffffffffffffffffffffffff1673ffffffffffffffffffffffffffffffffffffffff1673ffffffffffffffffffffffffffffffffffffffff1681526020019081526020016000206000018190555060005b6002811015620001e057600260405180604001604052808484600281106200017c576200017b62000291565b5b6020020151815260200160008152509080600181540180825580915050600190039060005260206000209060020201600090919091909150600082015181600001556020820151816001015550508080620001d79062000214565b9150506200014f565b5050620002c0565b6040518060400160405280600290602082028036833780820191505090505090565b6000819050919050565b600062000221826200020a565b91507fffffffffffffffffffffffffffffffffffffffffffffffffffffffffffffffff82141562000257576200025662000262565b5b600182019050919050565b7f4e487b7100000000000000000000000000000000000000000000000000000000600052601160045260246000fd5b7f4e487b7100000000000000000000000000000000000000000000000000000000600052603260045260246000fd5b61100c80620002d06000396000f3fe608060405234801561001057600080fd5b50600436106100885760003560e01c8063609ff1bd1161005b578063609ff1bd146101145780639e7b8d6114610132578063a3ec138d1461014e578063e2ba53f01461018157610088565b80630121b93f1461008d578063013cf08b146100a95780632e4176cf146100da5780635c19a95c146100f8575b600080fd5b6100a760048036038101906100a29190610a01565b61019f565b005b6100c360048036038101906100be9190610a01565b6102e6565b6040516100d1929190610b95565b60405180910390f35b6100e261031a565b6040516100ef9190610b5f565b60405180910390f35b610112600480360381019061010d91906109d4565b61033e565b005b61011c6106da565b6040516101299190610c9e565b60405180910390f35b61014c600480360381019061014791906109d4565b610762565b005b610168600480360381019061016391906109d4565b610919565b6040516101789493929190610cb9565b60405180910390f35b610189610976565b6040516101969190610b7a565b60405180910390f35b6000600160003373ffffffffffffffffffffffffffffffffffffffff1673ffffffffffffffffffffffffffffffffffffffff168152602001908152602001600020905060008160000154141561022a576040517f08c379a000000000000000000000000000000000000000000000000000000000815260040161022190610bbe565b60405180910390fd5b8060010160009054906101000a900460ff161561027c576040517f08c379a000000000000000000000000000000000000000000000000000000000815260040161027390610bde565b60405180910390fd5b60018160010160006101000a81548160ff0219169083151502179055508181600201819055508060000154600283815481106102bb576102ba610e2f565b5b906000526020600020906002020160010160008282546102db9190610d0f565b925050819055505050565b600281815481106102f657600080fd5b90600052602060002090600202016000915090508060000154908060010154905082565b60008054906101000a900473ffffffffffffffffffffffffffffffffffffffff1681565b6000600160003373ffffffffffffffffffffffffffffffffffffffff1673ffffffffffffffffffffffffffffffffffffffff16815260200190815260200160002090508060010160009054906101000a900460ff16156103d3576040517f08c379a00000000000000000000000000000000000000000000000000000000081526004016103ca90610bfe565b60405180910390fd5b3373ffffffffffffffffffffffffffffffffffffffff168273ffffffffffffffffffffffffffffffffffffffff161415610442576040517f08c379a000000000000000000000000000000000000000000000000000000000815260040161043990610c7e565b60405180910390fd5b5b600073ffffffffffffffffffffffffffffffffffffffff16600160008473ffffffffffffffffffffffffffffffffffffffff1673ffffffffffffffffffffffffffffffffffffffff16815260200190815260200160002060010160019054906101000a900473ffffffffffffffffffffffffffffffffffffffff1673ffffffffffffffffffffffffffffffffffffffff16146105b257600160008373ffffffffffffffffffffffffffffffffffffffff1673ffffffffffffffffffffffffffffffffffffffff16815260200190815260200160002060010160019054906101000a900473ffffffffffffffffffffffffffffffffffffffff1691503373ffffffffffffffffffffffffffffffffffffffff168273ffffffffffffffffffffffffffffffffffffffff1614156105ad576040517f08c379a00000000000000000000000000000000000000000000000000000000081526004016105a490610c3e565b60405180910390fd5b610443565b60018160010160006101000a81548160ff021916908315150217905550818160010160016101000a81548173ffffffffffffffffffffffffffffffffffffffff021916908373ffffffffffffffffffffffffffffffffffffffff1602179055506000600160008473ffffffffffffffffffffffffffffffffffffffff1673ffffffffffffffffffffffffffffffffffffffff16815260200190815260200160002090508060010160009054906101000a900460ff16156106b5578160000154600282600201548154811061068957610688610e2f565b5b906000526020600020906002020160010160008282546106a99190610d0f565b925050819055506106d5565b81600001548160000160008282546106cd9190610d0f565b925050819055505b505050565b6000806000905060005b60028054905081101561075d57816002828154811061070657610705610e2f565b5b906000526020600020906002020160010154111561074a576002818154811061073257610731610e2f565b5b90600052602060002090600202016001015491508092505b808061075590610db7565b9150506106e4565b505090565b60008054906101000a900473ffffffffffffffffffffffffffffffffffffffff1673ffffffffffffffffffffffffffffffffffffffff163373ffffffffffffffffffffffffffffffffffffffff16146107f0576040517f08c379a00000000000000000000000000000000000000000000000000000000081526004016107e790610c1e565b60405180910390fd5b600160008273ffffffffffffffffffffffffffffffffffffffff1673ffffffffffffffffffffffffffffffffffffffff16815260200190815260200160002060010160009054906101000a900460ff1615610880576040517f08c379a000000000000000000000000000000000000000000000000000000000815260040161087790610c5e565b60405180910390fd5b6000600160008373ffffffffffffffffffffffffffffffffffffffff1673ffffffffffffffffffffffffffffffffffffffff16815260200190815260200160002060000154146108cf57600080fd5b60018060008373ffffffffffffffffffffffffffffffffffffffff1673ffffffffffffffffffffffffffffffffffffffff1681526020019081526020016000206000018190555050565b60016020528060005260406000206000915090508060000154908060010160009054906101000a900460ff16908060010160019054906101000a900473ffffffffffffffffffffffffffffffffffffffff16908060020154905084565b600060026109826106da565b8154811061099357610992610e2f565b5b906000526020600020906002020160000154905090565b6000813590506109b981610fa8565b92915050565b6000813590506109ce81610fbf565b92915050565b6000602082840312156109ea576109e9610e5e565b5b60006109f8848285016109aa565b91505092915050565b600060208284031215610a1757610a16610e5e565b5b6000610a25848285016109bf565b91505092915050565b610a3781610d65565b82525050565b610a4681610d77565b82525050565b610a5581610d83565b82525050565b6000610a68601483610cfe565b9150610a7382610e63565b602082019050919050565b6000610a8b600e83610cfe565b9150610a9682610e8c565b602082019050919050565b6000610aae601283610cfe565b9150610ab982610eb5565b602082019050919050565b6000610ad1602883610cfe565b9150610adc82610ede565b604082019050919050565b6000610af4601983610cfe565b9150610aff82610f2d565b602082019050919050565b6000610b17601883610cfe565b9150610b2282610f56565b602082019050919050565b6000610b3a601e83610cfe565b9150610b4582610f7f565b602082019050919050565b610b5981610dad565b82525050565b6000602082019050610b746000830184610a2e565b92915050565b6000602082019050610b8f6000830184610a4c565b92915050565b6000604082019050610baa6000830185610a4c565b610bb76020830184610b50565b9392505050565b60006020820190508181036000830152610bd781610a5b565b9050919050565b60006020820190508181036000830152610bf781610a7e565b9050919050565b60006020820190508181036000830152610c1781610aa1565b9050919050565b60006020820190508181036000830152610c3781610ac4565b9050919050565b60006020820190508181036000830152610c5781610ae7565b9050919050565b60006020820190508181036000830152610c7781610b0a565b9050919050565b60006020820190508181036000830152610c9781610b2d565b9050919050565b6000602082019050610cb36000830184610b50565b92915050565b6000608082019050610cce6000830187610b50565b610cdb6020830186610a3d565b610ce86040830185610a2e565b610cf56060830184610b50565b95945050505050565b600082825260208201905092915050565b6000610d1a82610dad565b9150610d2583610dad565b9250827fffffffffffffffffffffffffffffffffffffffffffffffffffffffffffffffff03821115610d5a57610d59610e00565b5b828201905092915050565b6000610d7082610d8d565b9050919050565b60008115159050919050565b6000819050919050565b600073ffffffffffffffffffffffffffffffffffffffff82169050919050565b6000819050919050565b6000610dc282610dad565b91507fffffffffffffffffffffffffffffffffffffffffffffffffffffffffffffffff821415610df557610df4610e00565b5b600182019050919050565b7f4e487b7100000000000000000000000000000000000000000000000000000000600052601160045260246000fd5b7f4e487b7100000000000000000000000000000000000000000000000000000000600052603260045260246000fd5b600080fd5b7f486173206e6f20726967687420746f20766f7465000000000000000000000000600082015250565b7f416c726561647920766f7465642e000000000000000000000000000000000000600082015250565b7f596f7520616c726561647920766f7465642e0000000000000000000000000000600082015250565b7f4f6e6c79206368616972706572736f6e2063616e20676976652072696768742060008201527f746f20766f74652e000000000000000000000000000000000000000000000000602082015250565b7f466f756e64206c6f6f7020696e2064656c65676174696f6e2e00000000000000600082015250565b7f54686520766f74657220616c726561647920766f7465642e0000000000000000600082015250565b7f53656c662d64656c65676174696f6e20697320646973616c6c6f7765642e0000600082015250565b610fb181610d65565b8114610fbc57600080fd5b50565b610fc881610dad565b8114610fd357600080fd5b5056fea2646970667358221220a2a986c37dd18a7f35de9a78f33c856f93d73ca8bb97799938bf3e608bb19a3464736f6c63430008070033",
					"opcodes": "PUSH1 0x80 PUSH1 0x40 MSTORE CALLVALUE DUP1 ISZERO PUSH3 0x11 JUMPI PUSH1 0x0 DUP1 REVERT JUMPDEST POP PUSH3 0x1C PUSH3 0x1E8 JUMP JUMPDEST PUSH32 0x6E616D6530310000000000000000000000000000000000000000000000000000 PUSH1 0x0 SHL DUP2 PUSH1 0x0 PUSH1 0x2 DUP2 LT PUSH3 0x57 JUMPI PUSH3 0x56 PUSH3 0x291 JUMP JUMPDEST JUMPDEST PUSH1 0x20 MUL ADD DUP2 DUP2 MSTORE POP POP PUSH32 0x6E616D6530320000000000000000000000000000000000000000000000000000 PUSH1 0x0 SHL DUP2 PUSH1 0x1 PUSH1 0x2 DUP2 LT PUSH3 0x9B JUMPI PUSH3 0x9A PUSH3 0x291 JUMP JUMPDEST JUMPDEST PUSH1 0x20 MUL ADD DUP2 DUP2 MSTORE POP POP CALLER PUSH1 0x0 DUP1 PUSH2 0x100 EXP DUP2 SLOAD DUP2 PUSH20 0xFFFFFFFFFFFFFFFFFFFFFFFFFFFFFFFFFFFFFFFF MUL NOT AND SWAP1 DUP4 PUSH20 0xFFFFFFFFFFFFFFFFFFFFFFFFFFFFFFFFFFFFFFFF AND MUL OR SWAP1 SSTORE POP PUSH1 0x1 DUP1 PUSH1 0x0 DUP1 PUSH1 0x0 SWAP1 SLOAD SWAP1 PUSH2 0x100 EXP SWAP1 DIV PUSH20 0xFFFFFFFFFFFFFFFFFFFFFFFFFFFFFFFFFFFFFFFF AND PUSH20 0xFFFFFFFFFFFFFFFFFFFFFFFFFFFFFFFFFFFFFFFF AND PUSH20 0xFFFFFFFFFFFFFFFFFFFFFFFFFFFFFFFFFFFFFFFF AND DUP2 MSTORE PUSH1 0x20 ADD SWAP1 DUP2 MSTORE PUSH1 0x20 ADD PUSH1 0x0 KECCAK256 PUSH1 0x0 ADD DUP2 SWAP1 SSTORE POP PUSH1 0x0 JUMPDEST PUSH1 0x2 DUP2 LT ISZERO PUSH3 0x1E0 JUMPI PUSH1 0x2 PUSH1 0x40 MLOAD DUP1 PUSH1 0x40 ADD PUSH1 0x40 MSTORE DUP1 DUP5 DUP5 PUSH1 0x2 DUP2 LT PUSH3 0x17C JUMPI PUSH3 0x17B PUSH3 0x291 JUMP JUMPDEST JUMPDEST PUSH1 0x20 MUL ADD MLOAD DUP2 MSTORE PUSH1 0x20 ADD PUSH1 0x0 DUP2 MSTORE POP SWAP1 DUP1 PUSH1 0x1 DUP2 SLOAD ADD DUP1 DUP3 SSTORE DUP1 SWAP2 POP POP PUSH1 0x1 SWAP1 SUB SWAP1 PUSH1 0x0 MSTORE PUSH1 0x20 PUSH1 0x0 KECCAK256 SWAP1 PUSH1 0x2 MUL ADD PUSH1 0x0 SWAP1 SWAP2 SWAP1 SWAP2 SWAP1 SWAP2 POP PUSH1 0x0 DUP3 ADD MLOAD DUP2 PUSH1 0x0 ADD SSTORE PUSH1 0x20 DUP3 ADD MLOAD DUP2 PUSH1 0x1 ADD SSTORE POP POP DUP1 DUP1 PUSH3 0x1D7 SWAP1 PUSH3 0x214 JUMP JUMPDEST SWAP2 POP POP PUSH3 0x14F JUMP JUMPDEST POP POP PUSH3 0x2C0 JUMP JUMPDEST PUSH1 0x40 MLOAD DUP1 PUSH1 0x40 ADD PUSH1 0x40 MSTORE DUP1 PUSH1 0x2 SWAP1 PUSH1 0x20 DUP3 MUL DUP1 CALLDATASIZE DUP4 CALLDATACOPY DUP1 DUP3 ADD SWAP2 POP POP SWAP1 POP POP SWAP1 JUMP JUMPDEST PUSH1 0x0 DUP2 SWAP1 POP SWAP2 SWAP1 POP JUMP JUMPDEST PUSH1 0x0 PUSH3 0x221 DUP3 PUSH3 0x20A JUMP JUMPDEST SWAP2 POP PUSH32 0xFFFFFFFFFFFFFFFFFFFFFFFFFFFFFFFFFFFFFFFFFFFFFFFFFFFFFFFFFFFFFFFF DUP3 EQ ISZERO PUSH3 0x257 JUMPI PUSH3 0x256 PUSH3 0x262 JUMP JUMPDEST JUMPDEST PUSH1 0x1 DUP3 ADD SWAP1 POP SWAP2 SWAP1 POP JUMP JUMPDEST PUSH32 0x4E487B7100000000000000000000000000000000000000000000000000000000 PUSH1 0x0 MSTORE PUSH1 0x11 PUSH1 0x4 MSTORE PUSH1 0x24 PUSH1 0x0 REVERT JUMPDEST PUSH32 0x4E487B7100000000000000000000000000000000000000000000000000000000 PUSH1 0x0 MSTORE PUSH1 0x32 PUSH1 0x4 MSTORE PUSH1 0x24 PUSH1 0x0 REVERT JUMPDEST PUSH2 0x100C DUP1 PUSH3 0x2D0 PUSH1 0x0 CODECOPY PUSH1 0x0 RETURN INVALID PUSH1 0x80 PUSH1 0x40 MSTORE CALLVALUE DUP1 ISZERO PUSH2 0x10 JUMPI PUSH1 0x0 DUP1 REVERT JUMPDEST POP PUSH1 0x4 CALLDATASIZE LT PUSH2 0x88 JUMPI PUSH1 0x0 CALLDATALOAD PUSH1 0xE0 SHR DUP1 PUSH4 0x609FF1BD GT PUSH2 0x5B JUMPI DUP1 PUSH4 0x609FF1BD EQ PUSH2 0x114 JUMPI DUP1 PUSH4 0x9E7B8D61 EQ PUSH2 0x132 JUMPI DUP1 PUSH4 0xA3EC138D EQ PUSH2 0x14E JUMPI DUP1 PUSH4 0xE2BA53F0 EQ PUSH2 0x181 JUMPI PUSH2 0x88 JUMP JUMPDEST DUP1 PUSH4 0x121B93F EQ PUSH2 0x8D JUMPI DUP1 PUSH4 0x13CF08B EQ PUSH2 0xA9 JUMPI DUP1 PUSH4 0x2E4176CF EQ PUSH2 0xDA JUMPI DUP1 PUSH4 0x5C19A95C EQ PUSH2 0xF8 JUMPI JUMPDEST PUSH1 0x0 DUP1 REVERT JUMPDEST PUSH2 0xA7 PUSH1 0x4 DUP1 CALLDATASIZE SUB DUP2 ADD SWAP1 PUSH2 0xA2 SWAP2 SWAP1 PUSH2 0xA01 JUMP JUMPDEST PUSH2 0x19F JUMP JUMPDEST STOP JUMPDEST PUSH2 0xC3 PUSH1 0x4 DUP1 CALLDATASIZE SUB DUP2 ADD SWAP1 PUSH2 0xBE SWAP2 SWAP1 PUSH2 0xA01 JUMP JUMPDEST PUSH2 0x2E6 JUMP JUMPDEST PUSH1 0x40 MLOAD PUSH2 0xD1 SWAP3 SWAP2 SWAP1 PUSH2 0xB95 JUMP JUMPDEST PUSH1 0x40 MLOAD DUP1 SWAP2 SUB SWAP1 RETURN JUMPDEST PUSH2 0xE2 PUSH2 0x31A JUMP JUMPDEST PUSH1 0x40 MLOAD PUSH2 0xEF SWAP2 SWAP1 PUSH2 0xB5F JUMP JUMPDEST PUSH1 0x40 MLOAD DUP1 SWAP2 SUB SWAP1 RETURN JUMPDEST PUSH2 0x112 PUSH1 0x4 DUP1 CALLDATASIZE SUB DUP2 ADD SWAP1 PUSH2 0x10D SWAP2 SWAP1 PUSH2 0x9D4 JUMP JUMPDEST PUSH2 0x33E JUMP JUMPDEST STOP JUMPDEST PUSH2 0x11C PUSH2 0x6DA JUMP JUMPDEST PUSH1 0x40 MLOAD PUSH2 0x129 SWAP2 SWAP1 PUSH2 0xC9E JUMP JUMPDEST PUSH1 0x40 MLOAD DUP1 SWAP2 SUB SWAP1 RETURN JUMPDEST PUSH2 0x14C PUSH1 0x4 DUP1 CALLDATASIZE SUB DUP2 ADD SWAP1 PUSH2 0x147 SWAP2 SWAP1 PUSH2 0x9D4 JUMP JUMPDEST PUSH2 0x762 JUMP JUMPDEST STOP JUMPDEST PUSH2 0x168 PUSH1 0x4 DUP1 CALLDATASIZE SUB DUP2 ADD SWAP1 PUSH2 0x163 SWAP2 SWAP1 PUSH2 0x9D4 JUMP JUMPDEST PUSH2 0x919 JUMP JUMPDEST PUSH1 0x40 MLOAD PUSH2 0x178 SWAP5 SWAP4 SWAP3 SWAP2 SWAP1 PUSH2 0xCB9 JUMP JUMPDEST PUSH1 0x40 MLOAD DUP1 SWAP2 SUB SWAP1 RETURN JUMPDEST PUSH2 0x189 PUSH2 0x976 JUMP JUMPDEST PUSH1 0x40 MLOAD PUSH2 0x196 SWAP2 SWAP1 PUSH2 0xB7A JUMP JUMPDEST PUSH1 0x40 MLOAD DUP1 SWAP2 SUB SWAP1 RETURN JUMPDEST PUSH1 0x0 PUSH1 0x1 PUSH1 0x0 CALLER PUSH20 0xFFFFFFFFFFFFFFFFFFFFFFFFFFFFFFFFFFFFFFFF AND PUSH20 0xFFFFFFFFFFFFFFFFFFFFFFFFFFFFFFFFFFFFFFFF AND DUP2 MSTORE PUSH1 0x20 ADD SWAP1 DUP2 MSTORE PUSH1 0x20 ADD PUSH1 0x0 KECCAK256 SWAP1 POP PUSH1 0x0 DUP2 PUSH1 0x0 ADD SLOAD EQ ISZERO PUSH2 0x22A JUMPI PUSH1 0x40 MLOAD PUSH32 0x8C379A000000000000000000000000000000000000000000000000000000000 DUP2 MSTORE PUSH1 0x4 ADD PUSH2 0x221 SWAP1 PUSH2 0xBBE JUMP JUMPDEST PUSH1 0x40 MLOAD DUP1 SWAP2 SUB SWAP1 REVERT JUMPDEST DUP1 PUSH1 0x1 ADD PUSH1 0x0 SWAP1 SLOAD SWAP1 PUSH2 0x100 EXP SWAP1 DIV PUSH1 0xFF AND ISZERO PUSH2 0x27C JUMPI PUSH1 0x40 MLOAD PUSH32 0x8C379A000000000000000000000000000000000000000000000000000000000 DUP2 MSTORE PUSH1 0x4 ADD PUSH2 0x273 SWAP1 PUSH2 0xBDE JUMP JUMPDEST PUSH1 0x40 MLOAD DUP1 SWAP2 SUB SWAP1 REVERT JUMPDEST PUSH1 0x1 DUP2 PUSH1 0x1 ADD PUSH1 0x0 PUSH2 0x100 EXP DUP2 SLOAD DUP2 PUSH1 0xFF MUL NOT AND SWAP1 DUP4 ISZERO ISZERO MUL OR SWAP1 SSTORE POP DUP2 DUP2 PUSH1 0x2 ADD DUP2 SWAP1 SSTORE POP DUP1 PUSH1 0x0 ADD SLOAD PUSH1 0x2 DUP4 DUP2 SLOAD DUP2 LT PUSH2 0x2BB JUMPI PUSH2 0x2BA PUSH2 0xE2F JUMP JUMPDEST JUMPDEST SWAP1 PUSH1 0x0 MSTORE PUSH1 0x20 PUSH1 0x0 KECCAK256 SWAP1 PUSH1 0x2 MUL ADD PUSH1 0x1 ADD PUSH1 0x0 DUP3 DUP3 SLOAD PUSH2 0x2DB SWAP2 SWAP1 PUSH2 0xD0F JUMP JUMPDEST SWAP3 POP POP DUP2 SWAP1 SSTORE POP POP POP JUMP JUMPDEST PUSH1 0x2 DUP2 DUP2 SLOAD DUP2 LT PUSH2 0x2F6 JUMPI PUSH1 0x0 DUP1 REVERT JUMPDEST SWAP1 PUSH1 0x0 MSTORE PUSH1 0x20 PUSH1 0x0 KECCAK256 SWAP1 PUSH1 0x2 MUL ADD PUSH1 0x0 SWAP2 POP SWAP1 POP DUP1 PUSH1 0x0 ADD SLOAD SWAP1 DUP1 PUSH1 0x1 ADD SLOAD SWAP1 POP DUP3 JUMP JUMPDEST PUSH1 0x0 DUP1 SLOAD SWAP1 PUSH2 0x100 EXP SWAP1 DIV PUSH20 0xFFFFFFFFFFFFFFFFFFFFFFFFFFFFFFFFFFFFFFFF AND DUP2 JUMP JUMPDEST PUSH1 0x0 PUSH1 0x1 PUSH1 0x0 CALLER PUSH20 0xFFFFFFFFFFFFFFFFFFFFFFFFFFFFFFFFFFFFFFFF AND PUSH20 0xFFFFFFFFFFFFFFFFFFFFFFFFFFFFFFFFFFFFFFFF AND DUP2 MSTORE PUSH1 0x20 ADD SWAP1 DUP2 MSTORE PUSH1 0x20 ADD PUSH1 0x0 KECCAK256 SWAP1 POP DUP1 PUSH1 0x1 ADD PUSH1 0x0 SWAP1 SLOAD SWAP1 PUSH2 0x100 EXP SWAP1 DIV PUSH1 0xFF AND ISZERO PUSH2 0x3D3 JUMPI PUSH1 0x40 MLOAD PUSH32 0x8C379A000000000000000000000000000000000000000000000000000000000 DUP2 MSTORE PUSH1 0x4 ADD PUSH2 0x3CA SWAP1 PUSH2 0xBFE JUMP JUMPDEST PUSH1 0x40 MLOAD DUP1 SWAP2 SUB SWAP1 REVERT JUMPDEST CALLER PUSH20 0xFFFFFFFFFFFFFFFFFFFFFFFFFFFFFFFFFFFFFFFF AND DUP3 PUSH20 0xFFFFFFFFFFFFFFFFFFFFFFFFFFFFFFFFFFFFFFFF AND EQ ISZERO PUSH2 0x442 JUMPI PUSH1 0x40 MLOAD PUSH32 0x8C379A000000000000000000000000000000000000000000000000000000000 DUP2 MSTORE PUSH1 0x4 ADD PUSH2 0x439 SWAP1 PUSH2 0xC7E JUMP JUMPDEST PUSH1 0x40 MLOAD DUP1 SWAP2 SUB SWAP1 REVERT JUMPDEST JUMPDEST PUSH1 0x0 PUSH20 0xFFFFFFFFFFFFFFFFFFFFFFFFFFFFFFFFFFFFFFFF AND PUSH1 0x1 PUSH1 0x0 DUP5 PUSH20 0xFFFFFFFFFFFFFFFFFFFFFFFFFFFFFFFFFFFFFFFF AND PUSH20 0xFFFFFFFFFFFFFFFFFFFFFFFFFFFFFFFFFFFFFFFF AND DUP2 MSTORE PUSH1 0x20 ADD SWAP1 DUP2 MSTORE PUSH1 0x20 ADD PUSH1 0x0 KECCAK256 PUSH1 0x1 ADD PUSH1 0x1 SWAP1 SLOAD SWAP1 PUSH2 0x100 EXP SWAP1 DIV PUSH20 0xFFFFFFFFFFFFFFFFFFFFFFFFFFFFFFFFFFFFFFFF AND PUSH20 0xFFFFFFFFFFFFFFFFFFFFFFFFFFFFFFFFFFFFFFFF AND EQ PUSH2 0x5B2 JUMPI PUSH1 0x1 PUSH1 0x0 DUP4 PUSH20 0xFFFFFFFFFFFFFFFFFFFFFFFFFFFFFFFFFFFFFFFF AND PUSH20 0xFFFFFFFFFFFFFFFFFFFFFFFFFFFFFFFFFFFFFFFF AND DUP2 MSTORE PUSH1 0x20 ADD SWAP1 DUP2 MSTORE PUSH1 0x20 ADD PUSH1 0x0 KECCAK256 PUSH1 0x1 ADD PUSH1 0x1 SWAP1 SLOAD SWAP1 PUSH2 0x100 EXP SWAP1 DIV PUSH20 0xFFFFFFFFFFFFFFFFFFFFFFFFFFFFFFFFFFFFFFFF AND SWAP2 POP CALLER PUSH20 0xFFFFFFFFFFFFFFFFFFFFFFFFFFFFFFFFFFFFFFFF AND DUP3 PUSH20 0xFFFFFFFFFFFFFFFFFFFFFFFFFFFFFFFFFFFFFFFF AND EQ ISZERO PUSH2 0x5AD JUMPI PUSH1 0x40 MLOAD PUSH32 0x8C379A000000000000000000000000000000000000000000000000000000000 DUP2 MSTORE PUSH1 0x4 ADD PUSH2 0x5A4 SWAP1 PUSH2 0xC3E JUMP JUMPDEST PUSH1 0x40 MLOAD DUP1 SWAP2 SUB SWAP1 REVERT JUMPDEST PUSH2 0x443 JUMP JUMPDEST PUSH1 0x1 DUP2 PUSH1 0x1 ADD PUSH1 0x0 PUSH2 0x100 EXP DUP2 SLOAD DUP2 PUSH1 0xFF MUL NOT AND SWAP1 DUP4 ISZERO ISZERO MUL OR SWAP1 SSTORE POP DUP2 DUP2 PUSH1 0x1 ADD PUSH1 0x1 PUSH2 0x100 EXP DUP2 SLOAD DUP2 PUSH20 0xFFFFFFFFFFFFFFFFFFFFFFFFFFFFFFFFFFFFFFFF MUL NOT AND SWAP1 DUP4 PUSH20 0xFFFFFFFFFFFFFFFFFFFFFFFFFFFFFFFFFFFFFFFF AND MUL OR SWAP1 SSTORE POP PUSH1 0x0 PUSH1 0x1 PUSH1 0x0 DUP5 PUSH20 0xFFFFFFFFFFFFFFFFFFFFFFFFFFFFFFFFFFFFFFFF AND PUSH20 0xFFFFFFFFFFFFFFFFFFFFFFFFFFFFFFFFFFFFFFFF AND DUP2 MSTORE PUSH1 0x20 ADD SWAP1 DUP2 MSTORE PUSH1 0x20 ADD PUSH1 0x0 KECCAK256 SWAP1 POP DUP1 PUSH1 0x1 ADD PUSH1 0x0 SWAP1 SLOAD SWAP1 PUSH2 0x100 EXP SWAP1 DIV PUSH1 0xFF AND ISZERO PUSH2 0x6B5 JUMPI DUP2 PUSH1 0x0 ADD SLOAD PUSH1 0x2 DUP3 PUSH1 0x2 ADD SLOAD DUP2 SLOAD DUP2 LT PUSH2 0x689 JUMPI PUSH2 0x688 PUSH2 0xE2F JUMP JUMPDEST JUMPDEST SWAP1 PUSH1 0x0 MSTORE PUSH1 0x20 PUSH1 0x0 KECCAK256 SWAP1 PUSH1 0x2 MUL ADD PUSH1 0x1 ADD PUSH1 0x0 DUP3 DUP3 SLOAD PUSH2 0x6A9 SWAP2 SWAP1 PUSH2 0xD0F JUMP JUMPDEST SWAP3 POP POP DUP2 SWAP1 SSTORE POP PUSH2 0x6D5 JUMP JUMPDEST DUP2 PUSH1 0x0 ADD SLOAD DUP2 PUSH1 0x0 ADD PUSH1 0x0 DUP3 DUP3 SLOAD PUSH2 0x6CD SWAP2 SWAP1 PUSH2 0xD0F JUMP JUMPDEST SWAP3 POP POP DUP2 SWAP1 SSTORE POP JUMPDEST POP POP POP JUMP JUMPDEST PUSH1 0x0 DUP1 PUSH1 0x0 SWAP1 POP PUSH1 0x0 JUMPDEST PUSH1 0x2 DUP1 SLOAD SWAP1 POP DUP2 LT ISZERO PUSH2 0x75D JUMPI DUP2 PUSH1 0x2 DUP3 DUP2 SLOAD DUP2 LT PUSH2 0x706 JUMPI PUSH2 0x705 PUSH2 0xE2F JUMP JUMPDEST JUMPDEST SWAP1 PUSH1 0x0 MSTORE PUSH1 0x20 PUSH1 0x0 KECCAK256 SWAP1 PUSH1 0x2 MUL ADD PUSH1 0x1 ADD SLOAD GT ISZERO PUSH2 0x74A JUMPI PUSH1 0x2 DUP2 DUP2 SLOAD DUP2 LT PUSH2 0x732 JUMPI PUSH2 0x731 PUSH2 0xE2F JUMP JUMPDEST JUMPDEST SWAP1 PUSH1 0x0 MSTORE PUSH1 0x20 PUSH1 0x0 KECCAK256 SWAP1 PUSH1 0x2 MUL ADD PUSH1 0x1 ADD SLOAD SWAP2 POP DUP1 SWAP3 POP JUMPDEST DUP1 DUP1 PUSH2 0x755 SWAP1 PUSH2 0xDB7 JUMP JUMPDEST SWAP2 POP POP PUSH2 0x6E4 JUMP JUMPDEST POP POP SWAP1 JUMP JUMPDEST PUSH1 0x0 DUP1 SLOAD SWAP1 PUSH2 0x100 EXP SWAP1 DIV PUSH20 0xFFFFFFFFFFFFFFFFFFFFFFFFFFFFFFFFFFFFFFFF AND PUSH20 0xFFFFFFFFFFFFFFFFFFFFFFFFFFFFFFFFFFFFFFFF AND CALLER PUSH20 0xFFFFFFFFFFFFFFFFFFFFFFFFFFFFFFFFFFFFFFFF AND EQ PUSH2 0x7F0 JUMPI PUSH1 0x40 MLOAD PUSH32 0x8C379A000000000000000000000000000000000000000000000000000000000 DUP2 MSTORE PUSH1 0x4 ADD PUSH2 0x7E7 SWAP1 PUSH2 0xC1E JUMP JUMPDEST PUSH1 0x40 MLOAD DUP1 SWAP2 SUB SWAP1 REVERT JUMPDEST PUSH1 0x1 PUSH1 0x0 DUP3 PUSH20 0xFFFFFFFFFFFFFFFFFFFFFFFFFFFFFFFFFFFFFFFF AND PUSH20 0xFFFFFFFFFFFFFFFFFFFFFFFFFFFFFFFFFFFFFFFF AND DUP2 MSTORE PUSH1 0x20 ADD SWAP1 DUP2 MSTORE PUSH1 0x20 ADD PUSH1 0x0 KECCAK256 PUSH1 0x1 ADD PUSH1 0x0 SWAP1 SLOAD SWAP1 PUSH2 0x100 EXP SWAP1 DIV PUSH1 0xFF AND ISZERO PUSH2 0x880 JUMPI PUSH1 0x40 MLOAD PUSH32 0x8C379A000000000000000000000000000000000000000000000000000000000 DUP2 MSTORE PUSH1 0x4 ADD PUSH2 0x877 SWAP1 PUSH2 0xC5E JUMP JUMPDEST PUSH1 0x40 MLOAD DUP1 SWAP2 SUB SWAP1 REVERT JUMPDEST PUSH1 0x0 PUSH1 0x1 PUSH1 0x0 DUP4 PUSH20 0xFFFFFFFFFFFFFFFFFFFFFFFFFFFFFFFFFFFFFFFF AND PUSH20 0xFFFFFFFFFFFFFFFFFFFFFFFFFFFFFFFFFFFFFFFF AND DUP2 MSTORE PUSH1 0x20 ADD SWAP1 DUP2 MSTORE PUSH1 0x20 ADD PUSH1 0x0 KECCAK256 PUSH1 0x0 ADD SLOAD EQ PUSH2 0x8CF JUMPI PUSH1 0x0 DUP1 REVERT JUMPDEST PUSH1 0x1 DUP1 PUSH1 0x0 DUP4 PUSH20 0xFFFFFFFFFFFFFFFFFFFFFFFFFFFFFFFFFFFFFFFF AND PUSH20 0xFFFFFFFFFFFFFFFFFFFFFFFFFFFFFFFFFFFFFFFF AND DUP2 MSTORE PUSH1 0x20 ADD SWAP1 DUP2 MSTORE PUSH1 0x20 ADD PUSH1 0x0 KECCAK256 PUSH1 0x0 ADD DUP2 SWAP1 SSTORE POP POP JUMP JUMPDEST PUSH1 0x1 PUSH1 0x20 MSTORE DUP1 PUSH1 0x0 MSTORE PUSH1 0x40 PUSH1 0x0 KECCAK256 PUSH1 0x0 SWAP2 POP SWAP1 POP DUP1 PUSH1 0x0 ADD SLOAD SWAP1 DUP1 PUSH1 0x1 ADD PUSH1 0x0 SWAP1 SLOAD SWAP1 PUSH2 0x100 EXP SWAP1 DIV PUSH1 0xFF AND SWAP1 DUP1 PUSH1 0x1 ADD PUSH1 0x1 SWAP1 SLOAD SWAP1 PUSH2 0x100 EXP SWAP1 DIV PUSH20 0xFFFFFFFFFFFFFFFFFFFFFFFFFFFFFFFFFFFFFFFF AND SWAP1 DUP1 PUSH1 0x2 ADD SLOAD SWAP1 POP DUP5 JUMP JUMPDEST PUSH1 0x0 PUSH1 0x2 PUSH2 0x982 PUSH2 0x6DA JUMP JUMPDEST DUP2 SLOAD DUP2 LT PUSH2 0x993 JUMPI PUSH2 0x992 PUSH2 0xE2F JUMP JUMPDEST JUMPDEST SWAP1 PUSH1 0x0 MSTORE PUSH1 0x20 PUSH1 0x0 KECCAK256 SWAP1 PUSH1 0x2 MUL ADD PUSH1 0x0 ADD SLOAD SWAP1 POP SWAP1 JUMP JUMPDEST PUSH1 0x0 DUP2 CALLDATALOAD SWAP1 POP PUSH2 0x9B9 DUP2 PUSH2 0xFA8 JUMP JUMPDEST SWAP3 SWAP2 POP POP JUMP JUMPDEST PUSH1 0x0 DUP2 CALLDATALOAD SWAP1 POP PUSH2 0x9CE DUP2 PUSH2 0xFBF JUMP JUMPDEST SWAP3 SWAP2 POP POP JUMP JUMPDEST PUSH1 0x0 PUSH1 0x20 DUP3 DUP5 SUB SLT ISZERO PUSH2 0x9EA JUMPI PUSH2 0x9E9 PUSH2 0xE5E JUMP JUMPDEST JUMPDEST PUSH1 0x0 PUSH2 0x9F8 DUP5 DUP3 DUP6 ADD PUSH2 0x9AA JUMP JUMPDEST SWAP2 POP POP SWAP3 SWAP2 POP POP JUMP JUMPDEST PUSH1 0x0 PUSH1 0x20 DUP3 DUP5 SUB SLT ISZERO PUSH2 0xA17 JUMPI PUSH2 0xA16 PUSH2 0xE5E JUMP JUMPDEST JUMPDEST PUSH1 0x0 PUSH2 0xA25 DUP5 DUP3 DUP6 ADD PUSH2 0x9BF JUMP JUMPDEST SWAP2 POP POP SWAP3 SWAP2 POP POP JUMP JUMPDEST PUSH2 0xA37 DUP2 PUSH2 0xD65 JUMP JUMPDEST DUP3 MSTORE POP POP JUMP JUMPDEST PUSH2 0xA46 DUP2 PUSH2 0xD77 JUMP JUMPDEST DUP3 MSTORE POP POP JUMP JUMPDEST PUSH2 0xA55 DUP2 PUSH2 0xD83 JUMP JUMPDEST DUP3 MSTORE POP POP JUMP JUMPDEST PUSH1 0x0 PUSH2 0xA68 PUSH1 0x14 DUP4 PUSH2 0xCFE JUMP JUMPDEST SWAP2 POP PUSH2 0xA73 DUP3 PUSH2 0xE63 JUMP JUMPDEST PUSH1 0x20 DUP3 ADD SWAP1 POP SWAP2 SWAP1 POP JUMP JUMPDEST PUSH1 0x0 PUSH2 0xA8B PUSH1 0xE DUP4 PUSH2 0xCFE JUMP JUMPDEST SWAP2 POP PUSH2 0xA96 DUP3 PUSH2 0xE8C JUMP JUMPDEST PUSH1 0x20 DUP3 ADD SWAP1 POP SWAP2 SWAP1 POP JUMP JUMPDEST PUSH1 0x0 PUSH2 0xAAE PUSH1 0x12 DUP4 PUSH2 0xCFE JUMP JUMPDEST SWAP2 POP PUSH2 0xAB9 DUP3 PUSH2 0xEB5 JUMP JUMPDEST PUSH1 0x20 DUP3 ADD SWAP1 POP SWAP2 SWAP1 POP JUMP JUMPDEST PUSH1 0x0 PUSH2 0xAD1 PUSH1 0x28 DUP4 PUSH2 0xCFE JUMP JUMPDEST SWAP2 POP PUSH2 0xADC DUP3 PUSH2 0xEDE JUMP JUMPDEST PUSH1 0x40 DUP3 ADD SWAP1 POP SWAP2 SWAP1 POP JUMP JUMPDEST PUSH1 0x0 PUSH2 0xAF4 PUSH1 0x19 DUP4 PUSH2 0xCFE JUMP JUMPDEST SWAP2 POP PUSH2 0xAFF DUP3 PUSH2 0xF2D JUMP JUMPDEST PUSH1 0x20 DUP3 ADD SWAP1 POP SWAP2 SWAP1 POP JUMP JUMPDEST PUSH1 0x0 PUSH2 0xB17 PUSH1 0x18 DUP4 PUSH2 0xCFE JUMP JUMPDEST SWAP2 POP PUSH2 0xB22 DUP3 PUSH2 0xF56 JUMP JUMPDEST PUSH1 0x20 DUP3 ADD SWAP1 POP SWAP2 SWAP1 POP JUMP JUMPDEST PUSH1 0x0 PUSH2 0xB3A PUSH1 0x1E DUP4 PUSH2 0xCFE JUMP JUMPDEST SWAP2 POP PUSH2 0xB45 DUP3 PUSH2 0xF7F JUMP JUMPDEST PUSH1 0x20 DUP3 ADD SWAP1 POP SWAP2 SWAP1 POP JUMP JUMPDEST PUSH2 0xB59 DUP2 PUSH2 0xDAD JUMP JUMPDEST DUP3 MSTORE POP POP JUMP JUMPDEST PUSH1 0x0 PUSH1 0x20 DUP3 ADD SWAP1 POP PUSH2 0xB74 PUSH1 0x0 DUP4 ADD DUP5 PUSH2 0xA2E JUMP JUMPDEST SWAP3 SWAP2 POP POP JUMP JUMPDEST PUSH1 0x0 PUSH1 0x20 DUP3 ADD SWAP1 POP PUSH2 0xB8F PUSH1 0x0 DUP4 ADD DUP5 PUSH2 0xA4C JUMP JUMPDEST SWAP3 SWAP2 POP POP JUMP JUMPDEST PUSH1 0x0 PUSH1 0x40 DUP3 ADD SWAP1 POP PUSH2 0xBAA PUSH1 0x0 DUP4 ADD DUP6 PUSH2 0xA4C JUMP JUMPDEST PUSH2 0xBB7 PUSH1 0x20 DUP4 ADD DUP5 PUSH2 0xB50 JUMP JUMPDEST SWAP4 SWAP3 POP POP POP JUMP JUMPDEST PUSH1 0x0 PUSH1 0x20 DUP3 ADD SWAP1 POP DUP2 DUP2 SUB PUSH1 0x0 DUP4 ADD MSTORE PUSH2 0xBD7 DUP2 PUSH2 0xA5B JUMP JUMPDEST SWAP1 POP SWAP2 SWAP1 POP JUMP JUMPDEST PUSH1 0x0 PUSH1 0x20 DUP3 ADD SWAP1 POP DUP2 DUP2 SUB PUSH1 0x0 DUP4 ADD MSTORE PUSH2 0xBF7 DUP2 PUSH2 0xA7E JUMP JUMPDEST SWAP1 POP SWAP2 SWAP1 POP JUMP JUMPDEST PUSH1 0x0 PUSH1 0x20 DUP3 ADD SWAP1 POP DUP2 DUP2 SUB PUSH1 0x0 DUP4 ADD MSTORE PUSH2 0xC17 DUP2 PUSH2 0xAA1 JUMP JUMPDEST SWAP1 POP SWAP2 SWAP1 POP JUMP JUMPDEST PUSH1 0x0 PUSH1 0x20 DUP3 ADD SWAP1 POP DUP2 DUP2 SUB PUSH1 0x0 DUP4 ADD MSTORE PUSH2 0xC37 DUP2 PUSH2 0xAC4 JUMP JUMPDEST SWAP1 POP SWAP2 SWAP1 POP JUMP JUMPDEST PUSH1 0x0 PUSH1 0x20 DUP3 ADD SWAP1 POP DUP2 DUP2 SUB PUSH1 0x0 DUP4 ADD MSTORE PUSH2 0xC57 DUP2 PUSH2 0xAE7 JUMP JUMPDEST SWAP1 POP SWAP2 SWAP1 POP JUMP JUMPDEST PUSH1 0x0 PUSH1 0x20 DUP3 ADD SWAP1 POP DUP2 DUP2 SUB PUSH1 0x0 DUP4 ADD MSTORE PUSH2 0xC77 DUP2 PUSH2 0xB0A JUMP JUMPDEST SWAP1 POP SWAP2 SWAP1 POP JUMP JUMPDEST PUSH1 0x0 PUSH1 0x20 DUP3 ADD SWAP1 POP DUP2 DUP2 SUB PUSH1 0x0 DUP4 ADD MSTORE PUSH2 0xC97 DUP2 PUSH2 0xB2D JUMP JUMPDEST SWAP1 POP SWAP2 SWAP1 POP JUMP JUMPDEST PUSH1 0x0 PUSH1 0x20 DUP3 ADD SWAP1 POP PUSH2 0xCB3 PUSH1 0x0 DUP4 ADD DUP5 PUSH2 0xB50 JUMP JUMPDEST SWAP3 SWAP2 POP POP JUMP JUMPDEST PUSH1 0x0 PUSH1 0x80 DUP3 ADD SWAP1 POP PUSH2 0xCCE PUSH1 0x0 DUP4 ADD DUP8 PUSH2 0xB50 JUMP JUMPDEST PUSH2 0xCDB PUSH1 0x20 DUP4 ADD DUP7 PUSH2 0xA3D JUMP JUMPDEST PUSH2 0xCE8 PUSH1 0x40 DUP4 ADD DUP6 PUSH2 0xA2E JUMP JUMPDEST PUSH2 0xCF5 PUSH1 0x60 DUP4 ADD DUP5 PUSH2 0xB50 JUMP JUMPDEST SWAP6 SWAP5 POP POP POP POP POP JUMP JUMPDEST PUSH1 0x0 DUP3 DUP3 MSTORE PUSH1 0x20 DUP3 ADD SWAP1 POP SWAP3 SWAP2 POP POP JUMP JUMPDEST PUSH1 0x0 PUSH2 0xD1A DUP3 PUSH2 0xDAD JUMP JUMPDEST SWAP2 POP PUSH2 0xD25 DUP4 PUSH2 0xDAD JUMP JUMPDEST SWAP3 POP DUP3 PUSH32 0xFFFFFFFFFFFFFFFFFFFFFFFFFFFFFFFFFFFFFFFFFFFFFFFFFFFFFFFFFFFFFFFF SUB DUP3 GT ISZERO PUSH2 0xD5A JUMPI PUSH2 0xD59 PUSH2 0xE00 JUMP JUMPDEST JUMPDEST DUP3 DUP3 ADD SWAP1 POP SWAP3 SWAP2 POP POP JUMP JUMPDEST PUSH1 0x0 PUSH2 0xD70 DUP3 PUSH2 0xD8D JUMP JUMPDEST SWAP1 POP SWAP2 SWAP1 POP JUMP JUMPDEST PUSH1 0x0 DUP2 ISZERO ISZERO SWAP1 POP SWAP2 SWAP1 POP JUMP JUMPDEST PUSH1 0x0 DUP2 SWAP1 POP SWAP2 SWAP1 POP JUMP JUMPDEST PUSH1 0x0 PUSH20 0xFFFFFFFFFFFFFFFFFFFFFFFFFFFFFFFFFFFFFFFF DUP3 AND SWAP1 POP SWAP2 SWAP1 POP JUMP JUMPDEST PUSH1 0x0 DUP2 SWAP1 POP SWAP2 SWAP1 POP JUMP JUMPDEST PUSH1 0x0 PUSH2 0xDC2 DUP3 PUSH2 0xDAD JUMP JUMPDEST SWAP2 POP PUSH32 0xFFFFFFFFFFFFFFFFFFFFFFFFFFFFFFFFFFFFFFFFFFFFFFFFFFFFFFFFFFFFFFFF DUP3 EQ ISZERO PUSH2 0xDF5 JUMPI PUSH2 0xDF4 PUSH2 0xE00 JUMP JUMPDEST JUMPDEST PUSH1 0x1 DUP3 ADD SWAP1 POP SWAP2 SWAP1 POP JUMP JUMPDEST PUSH32 0x4E487B7100000000000000000000000000000000000000000000000000000000 PUSH1 0x0 MSTORE PUSH1 0x11 PUSH1 0x4 MSTORE PUSH1 0x24 PUSH1 0x0 REVERT JUMPDEST PUSH32 0x4E487B7100000000000000000000000000000000000000000000000000000000 PUSH1 0x0 MSTORE PUSH1 0x32 PUSH1 0x4 MSTORE PUSH1 0x24 PUSH1 0x0 REVERT JUMPDEST PUSH1 0x0 DUP1 REVERT JUMPDEST PUSH32 0x486173206E6F20726967687420746F20766F7465000000000000000000000000 PUSH1 0x0 DUP3 ADD MSTORE POP JUMP JUMPDEST PUSH32 0x416C726561647920766F7465642E000000000000000000000000000000000000 PUSH1 0x0 DUP3 ADD MSTORE POP JUMP JUMPDEST PUSH32 0x596F7520616C726561647920766F7465642E0000000000000000000000000000 PUSH1 0x0 DUP3 ADD MSTORE POP JUMP JUMPDEST PUSH32 0x4F6E6C79206368616972706572736F6E2063616E206769766520726967687420 PUSH1 0x0 DUP3 ADD MSTORE PUSH32 0x746F20766F74652E000000000000000000000000000000000000000000000000 PUSH1 0x20 DUP3 ADD MSTORE POP JUMP JUMPDEST PUSH32 0x466F756E64206C6F6F7020696E2064656C65676174696F6E2E00000000000000 PUSH1 0x0 DUP3 ADD MSTORE POP JUMP JUMPDEST PUSH32 0x54686520766F74657220616C726561647920766F7465642E0000000000000000 PUSH1 0x0 DUP3 ADD MSTORE POP JUMP JUMPDEST PUSH32 0x53656C662D64656C65676174696F6E20697320646973616C6C6F7765642E0000 PUSH1 0x0 DUP3 ADD MSTORE POP JUMP JUMPDEST PUSH2 0xFB1 DUP2 PUSH2 0xD65 JUMP JUMPDEST DUP2 EQ PUSH2 0xFBC JUMPI PUSH1 0x0 DUP1 REVERT JUMPDEST POP JUMP JUMPDEST PUSH2 0xFC8 DUP2 PUSH2 0xDAD JUMP JUMPDEST DUP2 EQ PUSH2 0xFD3 JUMPI PUSH1 0x0 DUP1 REVERT JUMPDEST POP JUMP INVALID LOG2 PUSH5 0x6970667358 0x22 SLT KECCAK256 LOG2 0xA9 DUP7 0xC3 PUSH30 0xD18A7F35DE9A78F33C856F93D73CA8BB97799938BF3E608BB19A3464736F PUSH13 0x63430008070033000000000000 "
				},
				"gasEstimates": {
					"creation": {
						"codeDepositCost": "821600",
						"executionCost": "infinite",
						"totalCost": "infinite"
					},
					"external": {
						"chairperson()": "2556",
						"delegate(address)": "infinite",
						"giveRightToVote(address)": "29325",
						"proposals(uint256)": "infinite",
						"vote(uint256)": "infinite",
						"voters(address)": "infinite",
						"winnerName()": "infinite",
						"winningProposal()": "infinite"
					}
				},
				"methodIdentifiers": {
					"chairperson()": "2e4176cf",
					"delegate(address)": "5c19a95c",
					"giveRightToVote(address)": "9e7b8d61",
					"proposals(uint256)": "013cf08b",
					"vote(uint256)": "0121b93f",
					"voters(address)": "a3ec138d",
					"winnerName()": "e2ba53f0",
					"winningProposal()": "609ff1bd"
				}
			},
			"storageLayout": {
				"storage": [
					{
						"astId": 18,
						"contract": "contracts/3_Ballot.sol:Ballot",
						"label": "chairperson",
						"offset": 0,
						"slot": "0",
						"type": "t_address"
					},
					{
						"astId": 23,
						"contract": "contracts/3_Ballot.sol:Ballot",
						"label": "voters",
						"offset": 0,
						"slot": "1",
						"type": "t_mapping(t_address,t_struct(Voter)11_storage)"
					},
					{
						"astId": 27,
						"contract": "contracts/3_Ballot.sol:Ballot",
						"label": "proposals",
						"offset": 0,
						"slot": "2",
						"type": "t_array(t_struct(Proposal)16_storage)dyn_storage"
					}
				],
				"types": {
					"t_address": {
						"encoding": "inplace",
						"label": "address",
						"numberOfBytes": "20"
					},
					"t_array(t_struct(Proposal)16_storage)dyn_storage": {
						"base": "t_struct(Proposal)16_storage",
						"encoding": "dynamic_array",
						"label": "struct Ballot.Proposal[]",
						"numberOfBytes": "32"
					},
					"t_bool": {
						"encoding": "inplace",
						"label": "bool",
						"numberOfBytes": "1"
					},
					"t_bytes32": {
						"encoding": "inplace",
						"label": "bytes32",
						"numberOfBytes": "32"
					},
					"t_mapping(t_address,t_struct(Voter)11_storage)": {
						"encoding": "mapping",
						"key": "t_address",
						"label": "mapping(address => struct Ballot.Voter)",
						"numberOfBytes": "32",
						"value": "t_struct(Voter)11_storage"
					},
					"t_struct(Proposal)16_storage": {
						"encoding": "inplace",
						"label": "struct Ballot.Proposal",
						"members": [
							{
								"astId": 13,
								"contract": "contracts/3_Ballot.sol:Ballot",
								"label": "name",
								"offset": 0,
								"slot": "0",
								"type": "t_bytes32"
							},
							{
								"astId": 15,
								"contract": "contracts/3_Ballot.sol:Ballot",
								"label": "voteCount",
								"offset": 0,
								"slot": "1",
								"type": "t_uint256"
							}
						],
						"numberOfBytes": "64"
					},
					"t_struct(Voter)11_storage": {
						"encoding": "inplace",
						"label": "struct Ballot.Voter",
						"members": [
							{
								"astId": 4,
								"contract": "contracts/3_Ballot.sol:Ballot",
								"label": "weight",
								"offset": 0,
								"slot": "0",
								"type": "t_uint256"
							},
							{
								"astId": 6,
								"contract": "contracts/3_Ballot.sol:Ballot",
								"label": "voted",
								"offset": 0,
								"slot": "1",
								"type": "t_bool"
							},
							{
								"astId": 8,
								"contract": "contracts/3_Ballot.sol:Ballot",
								"label": "delegate",
								"offset": 1,
								"slot": "1",
								"type": "t_address"
							},
							{
								"astId": 10,
								"contract": "contracts/3_Ballot.sol:Ballot",
								"label": "vote",
								"offset": 0,
								"slot": "2",
								"type": "t_uint256"
							}
						],
						"numberOfBytes": "96"
					},
					"t_uint256": {
						"encoding": "inplace",
						"label": "uint256",
						"numberOfBytes": "32"
					}
				}
			},
			"userdoc": {
				"kind": "user",
				"methods": {},
				"version": 1
			}
		}
	}
}